:020000040800F2
:1000000000040020C10100084168000841680008A0
:10001000712800084168000841680008416800082C
:1000200041680008416800084168000861890008CB
:1000300041680008416800084168000871ED000847
:1000400041680008F1BC000881BE0008D1BE00086C
:10005000416800084168000831BA000881BA000808
:10006000D1BA000821BB000871BB000871AF0008BD
:10007000C1AF000811B0000861B00008B1B00008BD
:1000800001B1000851B10008A1B8000871C0000812
:10009000E1C0000891C1000841C20008C1BB0008CE
:1000A000416800084168000821E80008416800082C
:1000B00031E9000871E90008B1E9000801D0000841
:1000C00041D1000841680008416800084168000803
:1000D00041680008416800084168000831EE0008E6
:1000E00051BC000841BD000891BD000841680008EE
:1000F000416800084168000841680008A1B1000893
:1001000041680008D1C30008F1E90008416800080F
:100110004168000841680008E1E7000841680008FC
:10012000F1B1000841B2000891B20008E1B2000844
:1001300031B3000841680008E1BD000841680008CB
:1001400041680008416800084168000821E400088F
:1001500081B30008D1B3000821B400084168000849
:1001600041680008416800084168000841680008CB
:1001700031BE000841680008011700084168000806
:1001800041680008416800084168000841680008AB
:10019000416800084168000841680008416800089B
:1001A000416800084168000841680008416800088B
:1001B000416800084168000841680008416800087B
:1001C00072B62E4880F3098840F20000CCF200009D
:1001D0004EF63471CEF20001086040F20000C0F229
:1001E000F0004EF68851CEF2000108604FF000009A
:1001F000E1EE100A4EF63C71CEF2000108600620D6
:1002000080F31488BFF36F8F0EF05AFF4FF0553014
:100210001B491C4A91423CBF41F8040BFAE71A49BA
:10022000164A91423CBF41F8040BFAE71749184AB5
:10023000184B9A423EBF51F8040B42F8040BF8E702
:1002400000201549154A91423CBF41F8040BFAE7DA
:1002500006F0DEFA124C134DAC4203DA54F8041BDC
:100260008847F9E700F0D4FF0F4C104DAC4203DA99
:1002700054F8041B8847F9E706F0DABA00080020B2
:10028000000000200004002000040020E83C0108D9
:1002900000080020BC140020C014002038340020C6
:1002A000C0010008C0010008C0010008C00100082A
:1002B0002DE9F04F2DED108AC1F80CD0D0F80CD0FC
:1002C000BDEC108ABDE8F08F06F0FAFB07F0E8FB02
:1002D000002383F311882846A047002007F080F907
:1002E00007F0C6FB06F0CCFB06F0EAFF06F0E8FBE1
:1002F00007F0D6FB00DFFEE7000000000000000072
:1003000081F0004102E000BF83F0004330B54FEAC6
:1003100041044FEA430594EA050F08BF90EA020F33
:100320001FBF54EA000C55EA020C7FEA645C7FEAC6
:10033000655C00F0E2804FEA5454D4EB5555B8BFE9
:100340006D420CDD2C4480EA020281EA030382EA5A
:10035000000083EA010180EA020281EA0303362DEC
:1003600088BF30BD11F0004F4FEA01314FF4801CBF
:100370004CEA113102D0404261EB410113F0004FD1
:100380004FEA03334CEA133302D0524263EB430388
:1003900094EA050F00F0A780A4F10104D5F1200E26
:1003A0000DDB02FA0EFC22FA05F2801841F1000181
:1003B00003FA0EF2801843FA05F359410EE0A5F155
:1003C00020050EF1200E012A03FA0EFC28BF4CF086
:1003D000020C43FA05F3C01851EBE37101F000453C
:1003E00007D54FF0000EDCF1000C7EEB00006EEB49
:1003F0000101B1F5801F1BD3B1F5001F0CD34908D3
:100400005FEA30004FEA3C0C04F101044FEA445229
:1004100012F5800F80F09A80BCF1004F08BF5FEAB0
:10042000500C50F1000041EB045141EA050130BD90
:100430005FEA4C0C404141EB010111F4801FA4F133
:100440000104E9D191F0000F04BF01460020B1FA88
:1004500081F308BF2033A3F10B03B3F120020CDAC0
:100460000C3208DD02F1140CC2F10C0201FA0CF09E
:1004700021FA02F10CE002F11402D8BFC2F1200C03
:1004800001FA02F120FA0CFCDCBF41EA0C019040B9
:10049000E41AA2BF01EB0451294330BD6FEA040402
:1004A0001F3C1CDA0C340EDC04F11404C4F12002ED
:1004B00020FA04F001FA02F340EA030021FA04F3FF
:1004C00045EA030130BDC4F10C04C4F1200220FA56
:1004D00002F001FA04F340EA0300294630BD21FA94
:1004E00004F0294630BD94F0000F83F4801306BF5A
:1004F00081F480110134013D4EE77FEA645C18BF4E
:100500007FEA655C29D094EA050F08BF90EA020FE4
:1005100005D054EA000C04BF1946104630BD91EADC
:10052000030F1EBF0021002030BD5FEA545C05D1DF
:100530004000494128BF41F0004130BD14F580041E
:100540003CBF01F5801130BD01F0004545F0FE4192
:1005500041F470014FF0000030BD7FEA645C1ABFC7
:10056000194610467FEA655C1CBF0B46024650EAFE
:10057000013406BF52EA033591EA030F41F400212A
:1005800030BD00BF90F0000F04BF0021704730B5B0
:100590004FF4806404F132044FF000054FF0000185
:1005A00050E700BF90F0000F04BF0021704730B546
:1005B0004FF4806404F1320410F0004548BF40421B
:1005C0004FF000013EE700BF42004FEAE2014FEA70
:1005D00031014FEA02701FBF12F07F4393F07F4F4B
:1005E00081F06051704732F07F4208BF704793F04E
:1005F0007F4F04BF41F40021704730B54FF4607461
:1006000001F0004521F000411CE700BF50EA010263
:1006100008BF704730B54FF000050AE050EA01020C
:1006200008BF704730B511F0004502D5404261EB7C
:1006300041014FF4806404F132045FEA915C3FF4BD
:10064000D8AE4FF003025FEADC0C18BF03325FEA5A
:10065000DC0C18BF033202EBDC02C2F1200300FA0B
:1006600003FC20FA02F001FA03FE40EA0E0021FA30
:1006700002F11444BDE600BF0000000000000000CD
:1006800070B54FF0FF0C4CF4E06C1CEA11541DBF28
:100690001CEA135594EA0C0F95EA0C0F00F0DEF8F3
:1006A0002C4481EA030621EA4C5123EA4C5350EAD8
:1006B000013518BF52EA033541F4801143F4801329
:1006C00038D0A0FB02CE4FF00005E1FB02E506F0BA
:1006D0000042E0FB03E54FF00006E1FB03569CF00F
:1006E000000F18BF4EF0010EA4F1FF04B6F5007F15
:1006F00064F5407404D25FEA4E0E6D4146EB060687
:1007000042EAC62141EA55514FEAC52040EA5E500F
:100710004FEACE2EB4F1FD0C88BFBCF5E06F1ED8B9
:10072000BEF1004F08BF5FEA500E50F1000041EBF0
:10073000045170BD06F0004646EA010140EA02009D
:1007400081EA0301B4EB5C04C2BFD4EB0C0541EABF
:10075000045170BD41F480114FF0000E013C00F3D4
:10076000AB8014F1360FDEBF002001F0004170BDF8
:10077000C4F10004203C35DA0C341BDC04F1140411
:10078000C4F1200500FA05F320FA04F001FA05F29D
:1007900040EA020001F0004221F0004110EBD3706A
:1007A00021FA04F642EB06015EEA430E08BF20EA96
:1007B000D37070BDC4F10C04C4F1200500FA04F339
:1007C00020FA05F001FA04F240EA020001F00041CB
:1007D00010EBD37041F100015EEA430E08BF20EA3E
:1007E000D37070BDC4F1200500FA05F24EEA020E86
:1007F00020FA04F301FA05F243EA020321FA04F0B5
:1008000001F0004121FA04F220EA020000EBD3706B
:100810005EEA430E08BF20EAD37070BD94F0000F6B
:100820000FD101F00046400041EB010111F4801F9F
:1008300008BF013CF7D041EA060195F0000F18BF50
:10084000704703F00046520043EB030313F4801F8C
:1008500008BF013DF7D043EA0603704794EA0C0F46
:100860000CEA135518BF95EA0C0F0CD050EA41065C
:1008700018BF52EA4306D1D181EA030101F00041D9
:100880004FF0000070BD50EA410606BF1046194601
:1008900052EA430619D094EA0C0F02D150EA01360D
:1008A00013D195EA0C0F05D152EA03361CBF10464E
:1008B00019460AD181EA030101F0004141F0FE41ED
:1008C00041F470014FF0000070BD41F0FE4141F471
:1008D000780170BD70B54FF0FF0C4CF4E06C1CEA71
:1008E00011541DBF1CEA135594EA0C0F95EA0C0F26
:1008F00000F0A7F8A4EB050481EA030E52EA0335E1
:100900004FEA013100F088804FEA03334FF0805501
:1009100045EA131343EA12634FEA022245EA11152E
:1009200045EA10654FEA00260EF000419D4208BFDF
:10093000964244F1FD0404F5407402D25B084FEA8C
:100940003202B61A65EB03055B084FEA32024FF438
:1009500080104FF4002CB6EB020E75EB030E22BF95
:10096000B61A754640EA0C005B084FEA3202B6EB55
:10097000020E75EB030E22BFB61A754640EA5C0004
:100980005B084FEA3202B6EB020E75EB030E22BF94
:10099000B61A754640EA9C005B084FEA3202B6EB95
:1009A000020E75EB030E22BFB61A754640EADC0054
:1009B00055EA060E18D04FEA051545EA16754FEAB6
:1009C00006164FEAC30343EA52734FEAC2025FEAD4
:1009D0001C1CC0D111F4801F0BD141EA00014FF063
:1009E00000004FF0004CB6E711F4801F04BF014334
:1009F0000020B4F1FD0C88BFBCF5E06F3FF6AFAE50
:100A0000B5EB030C04BFB6EB020C5FEA500C50F1DF
:100A1000000041EB045170BD0EF0004E4EEA113162
:100A200014EB5C04C2BFD4EB0C0541EA045170BD69
:100A300041F480114FF0000E013C90E645EA060EAD
:100A40008DE60CEA135594EA0C0F08BF95EA0C0FDB
:100A50003FF43BAF94EA0C0F0AD150EA01347FF423
:100A600034AF95EA0C0F7FF425AF104619462CE7FA
:100A700095EA0C0F06D152EA03353FF4FDAE10465D
:100A8000194622E750EA410618BF52EA43067FF4AE
:100A9000C5AE50EA41047FF40DAF52EA43057FF43E
:100AA000EBAE12E7000000000000000000000000B4
:100AB0004FEA410212F5001215D211D56FF4787386
:100AC000B3EB625212D94FEAC12343F0004343EA29
:100AD000505311F0004F23FA02F018BF4042704704
:100AE0004FF00000704750EA013005D111F000408E
:100AF00008BF6FF0004070474FF00000704700BF24
:100B000053B94AB9002908BF00281CBF4FF0FF3174
:100B10004FF0FF3000F074B9ADF1080C6DE904CE70
:100B200000F006F8DDF804E0DDE9022304B07047C8
:100B30002DE9F047089E04468846002B4BD18A4297
:100B4000154667D9B2FA82F24AB1C2F1200701FA1A
:100B500002F320FA07F7954047EA030894404FEA6A
:100B6000154E230CB8FBFEF71FFA85FC0EFB178809
:100B700043EA084307FB0CF1994209D9EB1807F146
:100B8000FF3080F01B81994240F21881023F2B44D4
:100B90005B1AA4B2B3FBFEF00EFB103344EA03442D
:100BA00000FB0CFCA44509D92C1900F1FF3380F09F
:100BB0000781A44540F2048102382C4440EA0740F2
:100BC000A4EB0C0400271EB1D4400023C6E9004367
:100BD0003946BDE8F0878B4209D9002E00F0EB8042
:100BE0000027C6E9000138463946BDE8F087B3FA68
:100BF00083F7002F47D18B4202D3824200F2FA8062
:100C0000841A61EB030301209846002EE0D0C6E968
:100C10000048DDE702B9FFDEB2FA82F2002A40F0B6
:100C20008F80491B4FEA154E1FFA85F80127B1FB4B
:100C3000FEFC230C0EFB1C1143EA014308FB0CF1E4
:100C4000994207D9EB180CF1FF3002D2994200F219
:100C5000CD808446591AA3B2B1FBFEF00EFB1014EE
:100C600043EA044408FB00F8A04507D92C1900F119
:100C7000FF3302D2A04500F2B6801846A4EB080468
:100C800040EA0C409FE7C7F1200CBB4022FA0CFE63
:100C90004EEA030E01FA07F420FA0CF521FA0CF3E0
:100CA0004FEA1E482543B3FBF8F92C0C08FB193317
:100CB0001FFA8EFA44EA034309FB0AF49C4202FA43
:100CC00007F200FA07F10BD91EEB030309F1FF301D
:100CD00080F087809C4240F28480A9F1020973442D
:100CE0001B1BADB2B3FBF8F008FB103345EA03441D
:100CF00000FB0AFAA24508D91EEB040400F1FF33F9
:100D00006BD2A24569D90238744440EA0940A0FB7D
:100D10000289A4EB0A044C45C2464B4654D351D039
:100D2000002E69D0B1EB0A0564EB030404FA0CFC55
:100D3000FD40FC404CEA0505C6E90054002747E7A2
:100D4000C2F1200320FA03F7954001FA02F021FADC
:100D500003F34FEA154E3843010CB3FBFEF71FFABD
:100D600085F80EFB173341EA034107FB08F38B427A
:100D700004FA02F407D9691807F1FF3C2FD28B421D
:100D80002DD9023F2944CB1A81B2B3FBFEF00EFBF2
:100D9000103341EA034100FB08F38B4207D969187D
:100DA00000F1FF3C17D28B4215D902382944C91AE9
:100DB00040EA07473BE73746304609E70746E7E69C
:100DC0001846FBE64145ABD2B8EB020A69EB0E02CE
:100DD00001381346A4E76046E9E7184695E76746F9
:100DE000D1E781467CE702382C4447E7ACF1020C9E
:100DF0002B442FE7384608E73746E9E600000000B5
:100E0000704700BF0000000000000000000000006C
:100E1000844641EA000313F003036DD1403A41D305
:100E200051F8043B40F8043B51F8043B40F8043BC4
:100E300051F8043B40F8043B51F8043B40F8043BB4
:100E400051F8043B40F8043B51F8043B40F8043BA4
:100E500051F8043B40F8043B51F8043B40F8043B94
:100E600051F8043B40F8043B51F8043B40F8043B84
:100E700051F8043B40F8043B51F8043B40F8043B74
:100E800051F8043B40F8043B51F8043B40F8043B64
:100E900051F8043B40F8043B51F8043B40F8043B54
:100EA000403ABDD2303211D351F8043B40F8043BF4
:100EB00051F8043B40F8043B51F8043B40F8043B34
:100EC00051F8043B40F8043B103AEDD20C3205D304
:100ED00051F8043B40F8043B043AF9D2043208D0FC
:100EE000D2071CBF11F8013B00F8013B01D30B886E
:100EF00003806046704700BF082A13D38B078DD04C
:100F000010F003038AD0C3F10403D21ADB071CBF1D
:100F100011F8013B00F8013B80D331F8023B20F887
:100F2000023B7BE7043AD9D3013A11F8013B00F8C0
:100F3000013BF9D20B7803704B7843708B78837048
:100F40006046704700000000000000000000000044
:100F500090F800F06DE9024520F007016FF0000CF9
:100F600010F0070491F820F040F049804FF00004A1
:100F70006FF00700D1E9002391F840F000F108007C
:100F800082FA4CF2A4FA8CF283FA4CF3A2FA8CF3B4
:100F90004BBBD1E9022382FA4CF200F10800A4FA1B
:100FA0008CF283FA4CF3A2FA8CF3E3B9D1E904236F
:100FB00082FA4CF200F10800A4FA8CF283FA4CF3A6
:100FC000A2FA8CF37BB9D1E9062301F1200182FA60
:100FD0004CF200F10800A4FA8CF283FA4CF3A2FA66
:100FE0008CF3002BC6D0002A04BF04301A4612BA74
:100FF000B2FA82F2FDE8024500EBD2007047D1E977
:10100000002304F00305C4F100004FEAC50514F005
:10101000040F91F840F00CFA05F562EA05021CBFD6
:1010200063EA050362464FF00004A9E700000000F0
:1010300001F0FF01102A2BDB10F0070F08D010F889
:10104000013B013A8B422DD010F0070F42B3F6D18D
:10105000F0B441EA012141EA014122F007047FF0A6
:1010600000070023F0E80256083C85EA010586EAFD
:10107000010685FA47F5A3FA87F586FA47F6A5FA39
:1010800087F68EB9EED1F0BC01F0FF0102F0070245
:1010900032B110F8013B013A83EA010313B1F8D1F0
:1010A0000020704701387047002D06BF35460338D1
:1010B000073815F0010F07D1013015F4807F02BF0A
:1010C000013015F4C03F0130F0BC0138704700BF5B
:1010D0004FF0FF3C06E000BF4FF0010C02E000BF04
:1010E0004FF0010C4DF804CD4FEA410C7FEA6C5CE7
:1010F0004FEA430C18BF7FEA6C5C1BD001B050EA8A
:10110000410C0CBF52EA430C91EA030F02BF90EA74
:10111000020F0020704710F1000F91EA030F58BF33
:10112000994208BF90422CBFD8176FEAE37040F095
:10113000010070474FEA410C7FEA6C5C02D150EA33
:10114000013C07D14FEA430C7FEA6C5CD6D152EAEE
:10115000033CD3D05DF8040B704700BF84461046B3
:1011600062468C461946634600E000BF01B5FFF7B2
:10117000B7FF002848BF10F1000F01BD4DF808ED82
:10118000FFF7F4FF0CBF012000205DF808FB00BF53
:101190004DF808EDFFF7EAFF34BF012000205DF8AD
:1011A00008FB00BF4DF808EDFFF7E0FF94BF0120FA
:1011B00000205DF808FB00BF4DF808EDFFF7CEFFFB
:1011C00094BF012000205DF808FB00BF4DF808ED3A
:1011D000FFF7C4FF34BF012000205DF808FB00BF0B
:1011E0004FEA410C7FEA6C5C02D150EA013C0AD123
:1011F0004FEA430C7FEA6C5C02D152EA033C02D115
:101200004FF0000070474FF00100704700000000F1
:1012100000B5104B83B01B68019307F001FC05F08B
:1012200027FB01F0CDFA0C490C4808F0F1FD01F064
:10123000FFFD00F085FD01F05BF901F021FD05F0F7
:10124000BFFA00F0D5F900F0BBF94FF4FA7006F0E0
:101250004FF9F8E700080020040800208C33002034
:1012600000B5084B83B01A680192019A1B689A4234
:1012700005D1054803B05DF804EB05F061BBFFF74D
:10128000EFFF00BF00080020702B010800000000E5
:1012900080B5234C234AA36923491668996186B017
:1012A000022320250A220021009305964FF4207383
:1012B000CDE9015530201D4E1D4F00F0C1FE00F05C
:1012C000C7FD002000F0FCFDB04600F061FD13E01A
:1012D00005F0CEFF05F0F4FB06F0E2FB2368A34225
:1012E00007D0A2699B6892689A4202D2384605F0FC
:1012F00027FB002383F3118800F022FE00F088FD15
:1013000085F3118806F0B4FB05F0BAFB05F088FC04
:10131000B368002BDCDC404606F082FCD8E700BF57
:101320006825002000080020902B010814080020E8
:10133000B02B0108000000000000000000000000C9
:1013400030B5554C554DA4FB0030A4FB013183B0A2
:10135000C309C909A4FB02028B42286801904FEA25
:10136000D21201D891420DD20C46012084420ED1F6
:101370004B4B03201870019A2B689A4240F08480EE
:1013800003B030BD8B4280F0818001200024041B1B
:101390008342E4B224D081426DD0824257D00023F0
:1013A0000028E5D004EB840404EB8404A400E4B238
:1013B000462CDDD907EE903A9FED3A7AF8EEE77ABF
:1013C000F4EEC77AF1EE10FA1DD59FED377AF4EE00
:1013D000C77AF1EE10FA16DD314B00201870CAE71B
:1013E000891A91FBF4F1C1EB01118B0003F5B47381
:1013F0002E49DA08A1FB021292084FF4B47101FBE6
:101400001233DBB2CCE79FED277AF4EEC77AF1EE28
:1014100010FA11DC9FED267AF4EEC77AF1EE10FA9D
:10142000A6DD9FED217AF4EEC77AF1EE10FA9FD592
:101430001B4B022018709EE79FED1D7AF4EEC77AD1
:10144000F1EE10FAE6D5164B01221A7093E75B1AFB
:1014500093FBF4F3C3EB03139B00164AF03382FBB8
:101460000312D118DA17C2EB21224FF4B47101FB39
:101470001233DBB294E7D31A93FBF4F3C3EB0313F9
:101480009B000C4A7833EAE7FFF7EAFE91427FF6C9
:101490006FAF0846002469E7818080800008002043
:1014A00010080020CDCCCC3DCDCC4C3F176CC116E4
:1014B0006666E63EB7600BB6000000000000000064
:1014C0002DE9F04F384A394B926939491B689161CF
:1014D000ADF68C4D0DF104094FF420720021484601
:1014E000A1AFCDF8843C0EF013F94FF42072002127
:1014F00038460EF00DF90DF284764FF4207200217B
:101500000DF204500EF004F90DF604254FF420728C
:10151000002130460EF0FCF828464FF420720021DE
:101520000EF0F6F80DF28324224806F041FB00F09D
:10153000DFFC00F5A06E844609E015F8082073541E
:1015400013445B10E64509F801A07B541CD0ACEBBA
:1015500000039BB21CF8012B590813F0010F01F195
:10156000010802F01F0A02F03803E6D10DF204531D
:1015700002F0070203F808A0735C05F80820134482
:101580005B10E6457B54E2D10DF10308A3460DF252
:10159000035A18F8010F1AF8012F1BF8011FFFF763
:1015A000CFFEA045F5D1BFE7682500200008002048
:1015B000A02B01081408002000000000000000001B
:1015C00000B5074B07491A68087883B00192019A61
:1015D0001B689A4202D103B05DF804FBFFF740FE9E
:1015E000000800201008002000000000000000009B
:1015F00030B50E4C0E4B22680E4885B00025039284
:101600004FF4AF614022009505F01AFF0A4B009598
:1016100040220A484FF41E7105F012FF039A236816
:101620009A4201D105B030BDFFF71AFE0008002034
:10163000C11400083817002091120008C0140020BF
:1016400030B5104D81682B680F4A83B001930B6849
:1016500023F001030B608168946A03E0936A1B1B0B
:10166000C72B09D8086810F00100F7D1019A2B6840
:101670009A4204D103B030BD4FF0FF30F6E7FFF7D8
:10168000EFFD00BF000800206825002000000000DA
:1016900030B5184D83B02B68019311F00C0F044640
:1016A0000AD00378032B13D00622636822709A684D
:1016B0001AB100212046904763685B688BB101999D
:1016C0002A68914213D1204603B0BDE83040184744
:1016D000FFF7B6FF0622636822709A68002AE8D1F5
:1016E000EBE7019A2B689A4201D103B030BDFFF7B6
:1016F000B7FD00BF0008002000000000000000004F
:10170000F0B5284D83B02B68019306F079F905F008
:1017100037FA254B1E69F20715D55A69234C42F05A
:1017200001025A612778BB1F012B2AD90522636861
:1017300022701B680BB120469847042F27D0022F38
:1017400025D003232370B30710D5174A174C5369CC
:1017500043F0020353612378032B1DD063689B6819
:101760000622227013B101211048984705F030FA83
:10177000019A2B689A4213D103B0BDE8F04007F0FC
:101780000FB9019A2B689A420AD103B0F0BD022327
:101790002370B307EAD5D8E72046FFF751FFDDE70E
:1017A000FFF75EFD0008002000000550B01C00207F
:1017B00030B50B4D0B4C2B6883B02046019300F0E5
:1017C0002FF9019A2B680848084D094921619A426E
:1017D000C4E9025001D103B030BDFFF741FD00BFA5
:1017E00000080020B01C00205C37010800000550F4
:1017F000165502020000000000000000000000007A
:101800002DE9F0412F4C0578266882B0012D019614
:1018100006D0019A23689A4252D102B0BDE8F08105
:10182000294DA842F5D10E4690461F46274AE86842
:101830002B460C2109F054FE002839D1D5E902329B
:10184000126828339360EB681A68042151611B68A1
:10185000C3F80C80EB681A6817611B68B6085E60F5
:101860002B694FB343F480232B61E968184A096858
:101870000B60EB6819680B6843F001030B60536B56
:1018800043F0010353630B214E2009F009FBD5E916
:101890000113DA6842F00102DA60DA6842F002020B
:1018A000DA60CA6822F4804222F001021A60B0E7CE
:1018B000084805F045F8C1E723F480232B61D4E7FD
:1018C000FFF7CEFC00080020B01C00209116000895
:1018D00000380240C02B010800000000000000009A
:1018E00030B5184C0378226883B0022B019205D0E2
:1018F000019A23689A4223D103B030BD124B98421B
:101900000546F5D18168114A0B6823F4804323F022
:1019100001030B608168CB6823F00F03CB60536B2E
:1019200023F0010353634E2009F0E2FA019A236881
:101930009A4205D1E86803B0BDE8304009F038BEEE
:10194000FFF78EFC00080020B01C00200038024089
:1019500000B50F4B0278196883B0022A01910ED1AD
:1019600081680A6842F002020A6081680A6842F4EB
:1019700080420A6081680A6842F001020A60019AA6
:101980001B689A4202D103B05DF804FBFFF768FCC4
:10199000000800200000000000000000000000001F
:1019A00000B50F4B0278196883B0022A01910ED15D
:1019B00081680A6822F002020A6081680A6842F4BB
:1019C00080420A6081680A6842F001020A60019A56
:1019D0001B689A4202D103B05DF804FBFFF740FC9C
:1019E00000080020000000000000000000000000CF
:1019F00000B5074B83B01A680192019A1B689A429E
:101A000004D103B05DF804EBFFF7D2BEFFF728FC6A
:101A1000000800200000000000000000000000009E
:101A200000B5084B83B01A68019201220270019A36
:101A30001B6800219A42416002D103B05DF804FBAB
:101A4000FFF70EFC0008002000000000000000006E
:101A50002DE9F043254D83B02C680194DDF82890E2
:101A60000F4616469846044618B111B1204B9A42CB
:101A70002FD9204804F064FF202383F3118805F058
:101A8000F7FF04F0FDFF2378012B02D0194804F082
:101A900057FF4246314620464B466760FFF7B0FE8F
:101AA0000223237005F00CF805F0FAFF124B1A68B8
:101AB0009A4204D0996993688A689A420FD30023A6
:101AC00083F31188019A2B689A420CD103B0BDE8C8
:101AD000F0839307CDD1B8F1000FCDD1C9E7074806
:101AE00004F02EFFEBE7FFF7BBFB00BF0008002070
:101AF000FCFF0300F02B010868250020E02B010803
:101B000030B51C4D83B02B680193044658B3202395
:101B100083F3118805F0ACFF04F0B2FF2378022BA9
:101B200002D0154804F00CFF2046FFF7D9FE012330
:101B3000237004F0C5FF05F0B3FF104B1A689A42FA
:101B400004D0996993688A689A4208D3002383F382
:101B50001188019A2B689A4209D103B030BD084818
:101B600004F0EEFEF2E7044804F0EAFECFE7FFF7E8
:101B700077FB00BF00080020002C0108682500202A
:101B8000E02B010800000000000000000000000041
:101B900030B51C4D83B02B680193044658B3202305
:101BA00083F3118805F064FF04F06AFF2378022BA9
:101BB00002D0154804F0C4FE2046FFF7C9FE0423F6
:101BC000237004F07DFF05F06BFF104B1A689A42FA
:101BD00004D0996993688A689A4208D3002383F3F2
:101BE0001188019A2B689A4209D103B030BD084888
:101BF00004F0A6FEF2E7044804F0A2FECFE7FFF7E8
:101C00002FFB00BF00080020102C010868250020D1
:101C1000E02B0108000000000000000000000000B0
:101C200030B51C4D83B02B680193044658B3202374
:101C300083F3118805F01CFF04F022FF2378022BA8
:101C400002D0154804F07CFE2046FFF7A9FE0323CE
:101C5000237004F035FF05F023FF104B1A689A42F9
:101C600004D0996993688A689A4208D3002383F361
:101C70001188019A2B689A4209D103B030BD0848F7
:101C800004F05EFEF2E7044804F05AFECFE7FFF7E7
:101C9000E7FA00BF00080020302C0108682500206A
:101CA000E02B010800000000000000000000000020
:101CB00000B5064B83B01A680192019A1B689A42DC
:101CC00002D103B05DF804FBFFF7CAFA0008002058
:101CD00000B5064B83B01A680192019A1B689A42BC
:101CE00002D103B05DF804FBFFF7BAFA0008002048
:101CF00010B5104C104B226882B0019201221A706C
:101D0000202383F3118805F0E3FE04F0F9FE0B486D
:101D100006F0E6F904F014FF05F0F2FE002383F369
:101D20001188019A23689A4201D102B010BDFFF7D1
:101D300097FA00BF00080020D01C002020080020D7
:101D400030B50E4D0E4C2B6883B00193FFF750FE5B
:101D5000206808B10DF014FA4FF496400DF008FA1F
:101D600001992A682060B0FA80F35B099142C3F1BF
:101D7000000001D103B030BDFFF772FA0008002067
:101D8000C81C00200000000000000000000000004F
:101D900030B5174D174C2B78226885B0012B039274
:101DA00020D000F0D5FB144B1B78ABB9B0F5964FA3
:101DB00015D8124A124B12681B681249009202464B
:101DC0001148FFF745FE01232B700020039A23687A
:101DD0009A420BD105B030BDB0F5165FE9D94FF08E
:101DE000FF30F3E70848FFF78BFEDAE7FFF738FA32
:101DF000C51C002000080020C61C0020CC1C0020B0
:101E0000C81C0020402C0108B01C0020000000006D
:101E100010B50B4C0B48236882B0019306F028F8EC
:101E2000094806F0CDF9019A23689A4205D1054880
:101E300002B0BDE8104006F053B8FFF711FA00BF3A
:101E400000080020280800202008002000000000D2
:101E500030B5154D154C164B2268286883B0019299
:101E600001221A7008B10DF08BF94FF416500DF0E5
:101E70007FF9286098B10F4D286808B10DF080F9FE
:101E80004FF416500DF074F9B0FA80F35B09286036
:101E90005842019A23689A4204D103B030BD4FF0F2
:101EA000FF30F6E7FFF7DCF9C81C0020000800202F
:101EB000C61C0020CC1C0020000000000000000018
:101EC00000B5074B07491A68087083B00192019A60
:101ED0001B689A4202D103B05DF804FBFFF7C0F91A
:101EE00000080020C41C00200000000000000000CA
:101EF00000B50D4A0D4B1278196883B0019142B1BB
:101F00000B4AD26812681268120302D4094A106898
:101F100001E0094A1068019A1B689A4202D103B095
:101F20005DF804FBFFF79CF9C61C002000080020A8
:101F3000B01C0020CC1C0020C81C002000000000A9
:101F400000B50E4A0E4B1278196883B001914AB160
:101F5000019A1B689A420FD10A4803B05DF804EB5E
:101F6000FFF75EBE019A1B689A4205D1054803B08F
:101F70005DF804EBFFF70CBEFFF772F9C41C0020FC
:101F800000080020B01C002000000000000000003D
:101F900070B5274D82B02B680193064601220321BC
:101FA0006E2000F065FB044630B1019A2B689A421E
:101FB00020463AD102B070BD32464E216E2000F06C
:101FC00057FB04460028F0D1442E07D00246B72123
:101FD0006E2000F04DFBB8B10446E6E70122B721C0
:101FE0006E2000F045FB0028F6D1224603216E202A
:101FF00000F03EFB0028EFD1032211216E2000F0FB
:1020000037FB78B10446D0E7224603216E2000F06A
:102010002FFB0028E0D10A2211216E2000F028FBBE
:102020000028D9D1034B1E71BFE7FFF719F900BF94
:1020300000080020D41C0020000000000000000068
:102040002DE9F04F8FB0DFF80084DDF860C0D8F8DC
:1020500000400D940CF1FF355C1EB3F5207F9DF818
:1020600064909DF868B00C44154400F21282BCF5EF
:10207000F07F00F20E82B1F5207F0E4600F2128250
:10208000B2F5F07F174600F21082A14280F0048280
:10209000B4F5207F00F20082AA4280F00082B5F5FC
:1020A000F07F00F2FC81B9F1400F824600F0B08170
:1020B000B9F1800F23D0B9F1200F00F09C810023EB
:1020C000CDE90033BBF1400F2FD0BBF1800F00F002
:1020D000CB81BBF1200F00F0B9810023CDE90233A1
:1020E000002203216E2000F0C3FAA0B30D9AD8F8A5
:1020F00000309A4240F0E2810FB0BDE8F08F9A07BD
:1021000040F0D681CC4A8C085900661CA2FB010124
:10211000A2FB030204EB930406EBD2030093BBF192
:10212000400F06EBD1030193CFD11CF0010F40F01B
:10213000C281C14B7D084FEA4C026F1CA3FB021207
:10214000A3FB0C1307EB9303029307EB920305EB3E
:102150005C050393C4E702465B216E2000F088FA19
:102160000028C3D15046FFF713FF0028BED1024616
:1021700003216E2000F07CFA0028B7D1C6F30723B4
:102180001A4608216E20049300F072FA0028ADD19F
:10219000F3B21A4609216E20059300F069FA00286F
:1021A000A4D1C7F307231A460A216E20069300F034
:1021B0005FFA00289AD1FBB21A460B216E200793D2
:1021C00000F056FA002891D1C4F307231A460C21D7
:1021D0006E20089300F04CFA002887D1E3B21A462B
:1021E0000D216E20099300F043FA00287FF47EAFA2
:1021F000C5F307231A460E216E200A9300F038FA21
:1022000000287FF473AFEBB21A460F216E200B93B8
:1022100000F02EFA00287FF469AF049A35216E2071
:1022200000F026FA00287FF461AF059A36216E206F
:1022300000F01EFA00287FF459AF089A37216E206B
:1022400000F016FA00287FF451AF099A38216E2069
:1022500000F00EFA00287FF449AF069A39216E206B
:1022600000F006FA00287FF441AF079A3A216E2069
:1022700000F0FEF900287FF439AF0A9A3B216E2066
:1022800000F0F6F900287FF431AF0B9A3C216E2064
:1022900000F0EEF900287FF429AF009B3D21C3F345
:1022A00007226E2000F0E4F900287FF41FAF9DF8AC
:1022B00000203E216E2000F0DBF900287FF416AFED
:1022C000019B3F21C3F307226E2000F0D1F90028C3
:1022D0007FF40CAF9DF8042040216E2000F0C8F977
:1022E00000287FF403AF029B4121C3F307226E2035
:1022F00000F0BEF900287FF4F9AE9DF808204221D5
:102300006E2000F0B5F900287FF4F0AE039B432166
:10231000C3F307226E2000F0ABF900287FF4E6AE8D
:102320009DF80C2044216E2000F0A2F900287FF4D3
:10233000DDAE012203216E2000F09AF900287FF41F
:10234000D5AE4A4693216E2000F092F900287FF422
:10235000CDAE5A4694216E2000F08AF900287FF411
:10236000C5AE012203216E2000F082F900287FF41F
:10237000BDAE0134A31B07EE103ADFED307AB8EEA4
:10238000477ABAF1440F77EEC77A00F09980B0EE41
:10239000006AF2EE006AE7EE066A77EEA77AB0EE20
:1023A000667A67EE877ADFED266A87EEA67AFCEE1C
:1023B000C77ACDED007A009B9521C3F307226E20EA
:1023C00000F056F900287FF491AE9DF80020962188
:1023D0006E2000F04DF900287FF488AE194B0135CE
:1023E000EF1BA41B5F801C8083F804A083F805907A
:1023F00083F806B07AE610495A00A1FB030306EB06
:102400005303A1FB0212009306EB5203019359E61A
:10241000D9074DD4084A74085900661CA2FB010173
:10242000A2FB030204EB530406EB9203009306EBBA
:102430009103019346E600BFABAAAAAA000022447A
:102440000000A344D41C002000080020244A4FEAC6
:102450004C03A2FB0C1CA2FB032307EB530307EB6B
:102460005C02029203933BE61CF0030F23D11C4B4A
:10247000BD084FEA4C026F1CA3FB0212A3FB0C1316
:1024800007EBD303029307EBD20305EB9C05039301
:1024900026E66FF0070029E66FF0030026E66FF0EE
:1024A000040023E66FF0010020E66FF002001DE655
:1024B0006FF005001AE66FF0060017E6FEF7D0FE93
:1024C000F2EE006A37EE267ADFED066A67EE277ACB
:1024D00087EEA67AFCEEC77ACDED007A6BE700BFF7
:1024E000ABAAAAAA000024440000000000000000DB
:1024F00010B5114C86B02368059300F081F80F49A0
:102500000F4806F065FE012200210D4806F0B0FEDE
:1025100020237822CDE901330092A023B422F021B8
:102520000220FFF78DFD059A23689A4201D106B07B
:1025300010BDFEF795FE00BF00080020502C0108DA
:1025400070330020000000000000000000000000C8
:1025500010B50A4B0A4A1988146858881B7982B04A
:10256000442B019400FB01F00199136818BF40004F
:10257000994201D102B010BDFEF772FED41C0020BA
:102580000008002000000000000000000000000023
:1025900070B5164E16483368154D82B005224FF4BB
:1025A000807101930AF04CFC20246B6983F48073E2
:1025B0006B61012004F09CFF631E13F0FF04F4D153
:1025C0004FF4807140F20622298309480AF038FC52
:1025D000019A33689A4206D10649074802B0BDE81D
:1025E000704006F03DBCFEF73BFE00BF0008002037
:1025F00000040240902C0108E82F00200000000099
:1026000000B50C4A0C4B1278196883B0012A01916D
:10261000019A1B6804D09A4209D103B05DF804FB0B
:102620009A4204D103B05DF804EBFFF7B1BFFEF7A7
:1026300017FE00BFE82F0020000800200000000067
:1026400000B5084B83B01A680192019A1B689A4240
:1026500005D1054803B05DF804EB06F049BCFEF770
:10266000FFFD00BF00080020E82F00200000000050
:10267000F0B5214C214E89B03368079307460025F9
:1026800020468DF818108DF819208DF8145006F09A
:10269000FFFC2378012B0CD0042205AB019502929C
:1026A00000933946022306AA204606F081FC05461F
:1026B00048B9114806F00CFD0020079A33689A4289
:1026C00017D109B0F0BD204606F05AFC23780C4A19
:1026D000052B106004D0084806F0FAFC68B2ECE75D
:1026E000204606F005FC2378012BF4D1FFF750FFBC
:1026F000F1E7FEF7B5FD00BFE82F0020000800203D
:10270000DC1C0020000000000000000000000000B1
:102710002DE9F043254E83B034680194042A9DF8D6
:102720002890144605460F46984639D9B9F1000F4E
:1027300014BF00224FF08052640002EB0863013C9A
:102740001C4405F00F0527F01F07202383F3118891
:1027500005F08EF93D4304F093F9154B1035DD601B
:102760001C6104F0ADF905F09BF9124B1A689A420E
:1027700004D0996993688A689A420DD3002383F341
:102780001188BFF36F8FBFF34F8F019A33689A425E
:102790000AD103B0BDE8F083074804F0D1F8EDE7B3
:1027A000064804F0CDF8C1E7FEF75AFD0008002006
:1027B00090ED00E068250020202D0108002D010883
:1027C00030B5224D224C2B68224A85B003936368B2
:1027D00043F004036360536A43F48033536220235D
:1027E00083F3118805F044F904F04AF917221A4BD3
:1027F000E260236104F064F905F052F9174B1A689E
:102800009A4204D0996993688A689A4218D3002042
:1028100080F31188BFF36F8FBFF34F8F03231D2207
:1028200000904FF00051FFF773FF094A536843F0DF
:1028300001035360039A2B689A4205D105B030BD5D
:10284000074804F07DF8E2E7FEF70AFD00080020E3
:1028500090ED00E000ED00E0090000106825002088
:10286000202D010800000000000000000000000012
:1028700070B51A4D1A4C1B4E0FCD0FC49EB02A686E
:10288000336822801D93EFF30981682203A8FEF7C5
:10289000BFFA154B9D6AAA0714D4EB0708D5124B53
:1028A00008995B6B114A00910D4880210CF080FF64
:1028B0001D9A33689A420FD109481EB0BDE8704096
:1028C00004F03EB8099A5B6B0092A4F11000084A2C
:1028D00080210CF06DFFE0E7FEF7C2FCE42C01085C
:1028E000E01C00200008002000ED00E0C02C0108E2
:1028F000A02C010800000000000000000000000003
:1029000000B51F4B0278196883B00191E2B11D4AEE
:102910004FF4005111834278EAB11A4A4FF48051C2
:1029200011838278F2B1174A4FF480411183C27843
:10293000FAB9144A4FF400415183019A1B689A4234
:102940001CD103B05DF804FB0E4A4FF400515183D3
:102950004278002AE1D10B4A4FF4805151838278AA
:10296000002AE0D1074A4FF480415183C278002AFF
:10297000DFD0044A4FF400411183DEE7FEF770FC1C
:1029800000080020001002400000000000000000CD
:1029900000B51F4B0278196883B00191E2B11D4A5E
:1029A0004FF4007111834278EAB11A4A4FF48071F2
:1029B00011838278F2B1174A4FF400611183C27813
:1029C000FAB9144A4FF480615183019A1B689A4204
:1029D0001CD103B05DF804FB0E4A4FF40071518323
:1029E0004278002AE1D10B4A4FF4807151838278FA
:1029F000002AE0D1074A4FF400615183C278002ACF
:102A0000DFD0044A4FF480611183DEE7FEF728FC33
:102A1000000800200010024000000000000000003C
:102A200030B50C4A0C4B116883B04FF4005501913E
:102A30004FF480544FF400414FF480405D835C8339
:102A40005883598301991368994201D103B030BD6D
:102A5000FEF706FC00080020001002400000000005
:102A600030B50C4A0C4B116883B04FF400750191DE
:102A70004FF480744FF480614FF400605D835C8399
:102A80005883598301991368994201D103B030BD2D
:102A9000FEF7E6FB000800200010024000000000E6
:102AA00010B50B4C0B48236882B09922002101938A
:102AB00006F0DEFB019A23689A4206D10548002100
:102AC00002B0BDE8104006F0BBBCFEF7C9FB00BF7A
:102AD0000008002038330020000000000000000043
:102AE00010B50B4C0B48236882B09922002101934A
:102AF00006F0BEFB019A23689A4206D105480021E0
:102B000002B0BDE8104006F09BBCFEF7A9FB00BF79
:102B100000080020543300200000000000000000E6
:102B200000B5084B83B01A680192019A1B689A425B
:102B300006D10548002103B05DF804EB06F0E8BBC0
:102B4000FEF78EFB00080020383300200000000054
:102B500000B5084B83B01A680192019A1B689A422B
:102B600006D10548002103B05DF804EB06F0D0BBA8
:102B7000FEF776FB00080020543300200000000020
:102B800070B51A4C1A4E2378326882B0022B01922B
:102B9000A26811D165781748013505F0070500EBEB
:102BA0008500904763686570013B6360019A3368F4
:102BB0009A4219D102B070BD012B08D00199336837
:102BC000994211D10C4802B0BDE8704010476578B9
:102BD0000848013D05F0070500EB85009047636854
:102BE000657001336360E1E7FEF73AFB781D002072
:102BF00000080020C02D0108B02D010800000000D1
:102C000070B51A4C1A4E2378326882B0012B0192AB
:102C1000A26811D165781748013505F0070500EB6A
:102C2000850090476368657001336360019A33687B
:102C30009A4219D102B070BD022B08D001993368B5
:102C4000994211D10C4802B0BDE870401047657838
:102C50000848013D05F0070500EB850090476368D3
:102C60006570013B6360E1E7FEF7FAFA601D002042
:102C700000080020C02D0108B02D01080000000050
:102C800070B51D4E1D4A1E4B30681E491E4C91608A
:102C900082B00021D46001901C4C1D481D4D9D60E8
:102CA000117051705160106154611B481B4A1C4DDA
:102CB000D8601C48197059705960C3E90425FFF7A2
:102CC0001FFE1848FFF764FE1749204606F080FAF9
:102CD000204606F06DFB2846144906F079FA019A61
:102CE00033689A4205D1284602B0BDE8704006F02C
:102CF0005FBBFEF7B5FA00BF00080020781D00207A
:102D0000601D002001290008A12A00083833002096
:102D1000212B000891290008E12A0008512B000806
:102D200054330020B02D0108702D0108302D01080A
:102D30000A490B4B09680B4A82B0202001914021BF
:102D400058834FF4806559834FF400644FF48040FA
:102D500004215D835C8358835183FEE700080020D3
:102D6000000C0240000402400000000000000000CF
:102D700000B50F4B83B01868019002290CD00329CD
:102D80000CD001290B4818BF0020019A1B689A42F9
:102D90000BD103B05DF804FB0748F6E7032A96BFA2
:102DA0000648002000EBC200EFE7FEF759FA00BF2B
:102DB00000080020C02E0108602E0108702F0108B5
:102DC00070B5154C82B02368019302291CD10D46C1
:102DD0000646202383F3118804F07AFE03F090FE68
:102DE00030460E4A012107F0B3FC29460C4A304612
:102DF00007F0AEFC0B4807F0ABFA03F0A1FE04F0BD
:102E00007FFE002383F31188019A23689A4201D13F
:102E100002B070BDFEF724FA00080020E02D010882
:102E2000102E0108901D002000000000000000008E
:102E300030B5134D134C2B68134883B0019307F042
:102E4000FFF91249104807F02BFA226D936B23F417
:102E5000002393634FF47A7004F04AFB20460C4938
:102E600007F026FC226D936B43F400239363019AD1
:102E70002B689A4201D103B030BDFEF7F1F900BFD3
:102E80000008002028300020901D0020402E01085E
:102E9000502E0108000000000000000000000000AB
:102EA00000B5084B83B01A680192019A1B689A42D8
:102EB00005D1054803B05DF804EB04F0D9BFFEF777
:102EC000CFF900BF000800203C08002000000000EF
:102ED00000B5084B83B01A680192019A1B689A42A8
:102EE00005D1054803B05DF804EB04F0F9BFFEF727
:102EF000B7F900BF000800203C08002000000000D7
:102F000070B50D4C82B0236801930D1E06460DDD91
:102F1000284605F0BDFC18B90C2333604FF0FF3094
:102F2000019A23689A4205D102B070BD034803F0AC
:102F300007FDEDE7FEF794F900080020902F010847
:102F400000B5064B83B01A680192019A1B689A4239
:102F500002D103B05DF804FBFEF782F900080020FF
:102F600000B5074B83B01A680192019A1B689A4218
:102F700004D103B05DF804EB03F03AB8FEF770F942
:102F80000008002000000000000000000000000019
:102F900010B50C4C82B02368019315290CD801227E
:102FA000094B8A4013403BB101740020019A236809
:102FB0009A4204D102B010BD6FF00700F6E7FEF7A9
:102FC0004FF900BF000800200B0030000000000097
:102FD00000B5074B83B01A680192019A1B689A42A8
:102FE00004D103B05DF804EB02F0CABAFEF738F979
:102FF00000080020000000000000000000000000A9
:1030000010B5074B82B01C680194019C1B689C4260
:1030100004D102B0BDE8104002F072B9FEF720F909
:103020000008002000000000000000000000000078
:1030300010B5074B82B01C680194019C1B689C4230
:1030400004D102B0BDE8104002F072BAFEF708F9F0
:103050000008002000000000000000000000000048
:103060002DE9F04182B002AB0024364D03F8054D46
:1030700090462A6801920F461A460121064603F03F
:10308000DFF90446E0B9B8F1010F9DF803301FD015
:10309000042F53D8DFE807F0322D0328230003F074
:1030A000FB07BB420CD03A460121304603F068F9D9
:1030B000044628B986F830717169304602F060FA2A
:1030C000019A2B689A42204636D102B0BDE8F081C1
:1030D000042F33D8DFE807F02B26211C170003F05C
:1030E0007F07BB42DFD1EBE703F0BF07BB42DAD17A
:1030F000E6E703F0D707BB42D5D1E1E703F0EF07DE
:10310000BB42D0D1DCE743F08007BB42CBD1D7E74D
:1031100043F04007BB42C6D1D2E743F00407BB42AD
:10312000C1D1CDE743F02807BB42BCD1C8E743F08B
:103130001007BB42B7D1C3E7FEF792F86FF0030464
:10314000BEE700BF000800200000000000000000F3
:1031500030B583B002AA114D002302F8053D0C469C
:103160002B680193012103F06BF978B99DF80330C6
:10317000C3F30011C3F3C0022170A270C3F3800136
:10318000C3F38012DB096170E2702371019A2B682E
:103190009A4201D103B030BDFEF762F8000800206A
:1031A00070B5134C84B00E46236803930DF10602EC
:1031B000F821054603F05CF928B1039A23689A4286
:1031C00013D104B070BD02AA0421284603F068F9A7
:1031D0000028F2D1BDF8062012B93368AB61ECE7E4
:1031E000029BB3FBF2F33360F8E7FEF739F800BF58
:1031F00000080020000000000000000000000000A7
:1032000000B5084B027F18680A7083B00190019ADC
:103210001B689A4203D1002003B05DF804FBFEF75F
:103220001FF800BF000800200000000000000000A0
:1032300070B5104C82B00E46236801930DF1020266
:103240002021054603F014F938B9BDF8023053B116
:10325000DB00012233602B622A77019A23689A42AD
:1032600005D102B070BD2B6A33602877F5E7FDF712
:10327000F7FF00BF00080020000000000000000071
:10328000F0B5294F83B03B680193052947D80E4616
:103290000446154662B100EB81020023526B012007
:1032A000711E04292FD8DFE801F025221306310012
:1032B00010460123F4E75B00FE226021204603F064
:1032C0008FF870B9344445B9284684F8285008E08E
:1032D00084F82B003444002DF6D0012384F82830E4
:1032E0000020019A3B689A421CD103B0F0BD84F8DB
:1032F0002A00EFE7C2F34F224421204603F058F89A
:103300000028DFD0EDE784F82800E3E71B01EF2277
:103310006021204603F064F80028D3D0E1E76FF085
:103320000300DEE7FDF79CFF00080020000000001E
:1033300010B50C4B82B01C68019405290AD80144D1
:10334000002091F828101170019A1B689A4206D14A
:1033500002B010BD002111706FF00300F4E7FDF71B
:103360007FFF00BF000800200000000000000000F8
:10337000F0B543181C4E83B0044693F82800336818
:1033800001930D46174630B105292AD8DFE801F030
:10339000141E1A1C0C0C04EB81046263019A33683E
:1033A0009A421CD103B0F0BDC2F34F2264212046E3
:1033B00002F0FEFF08B1F1E7626304EB8504002030
:1033C0006763EBE7E263F8E72264F6E7C2F34F22B4
:1033D0004421204602F0ECFF0028EED0DEE7FDF7A6
:1033E0003FFF6FF00300D9E7000800200000000055
:1033F00070B5204C82B02368019305461646052916
:1034000034D8DFE801F0030E0C1E2020436B33603C
:103410000020019A23689A4226D102B070BDC36B86
:10342000F5E70DF10202442103F022F80028F0D163
:10343000BDF802305A028BB9AB6B336085F82900B6
:10344000E7E7036CE3E70DF10202642103F010F8F3
:103450000028DED1BDF802305B02D8E701233260DC
:10346000AA6385F82930D4E7FDF7FAFE6FF0030070
:10347000CFE700BF000800200000000000000000AF
:1034800070B5104C82B00E46236801930DF1030213
:103490000121054602F0D4FF58B99DF8033085F8A4
:1034A00030311B064BBF012303463370307085F863
:1034B0004C30019A23689A4201D102B070BDFDF7E9
:1034C000CFFE00BF00080020000000000000000048
:1034D0002DE9F047DFF898A0027CDAF8003082B0DE
:1034E0000F4601F8082B06460193FFF759FEA0BBD3
:1034F000387307F110013046FFF79AFE68BB07F1F9
:103500001401304600F064FD38BB044607F1240581
:1035100006F1280907F118082A46A1B23046FFF73C
:1035200067FFD0B9013419F8013B08F8013B062CBC
:1035300005F10405F0D107F13C013046FFF7A0FF8B
:1035400058B9019ADAF800309A420ED1391D304646
:1035500002B0BDE8F04702F08BB8019ADAF800300B
:103560009A4202D102B0BDE8F087FDF779FE00BFB4
:103570000008002000000000000000000000000023
:103580002DE9F041614F92B005463B68119300224E
:10359000882102F0F5FE4FF47A724FF4C8735C494B
:1035A000A5F85221A5F854315A4AC5F858110023FC
:1035B000C5F8D42085F8F0302B62284601A9FFF722
:1035C00087FF044688B9ADF8040001AE0FCE05F1BF
:1035D000100CACE80F000FCEACE80F000FCEACE83B
:1035E0000F0096E80F008CE80F004B4BC5F8343104
:1035F00001264FF420634FF4FA72A5F83C31A5F888
:1036000038218021324685F85061284602F0B8FE04
:1036100032468046FF21284602F0B2FE002248EAE8
:10362000000011460443284602F0AAFE64B20DF1E0
:10363000030204439121284602F002FF64B29DF880
:10364000033085F83A31044332460021284602F01F
:1036500097FE64B200220443FF21284602F090FE48
:1036600064B2044300228021284602F089FE64B23D
:10367000204340B278B90146324628463446FFF727
:10368000FFFD40B90122A1B228461444FFF7F8FD1E
:10369000062CF6D130B1119A3B689A4233D112B060
:1036A000BDE8F0816885024604212846FFF7E8FD61
:1036B0000028F0D1024605212846FFF7E1FD002849
:1036C000E9D14FF490136B634FF4804201212846F7
:1036D000FFF74EFE0028DED14FF40C13EB6395F894
:1036E0002B3003B10023FF222B6485F83021012108
:1036F000284602F045FE012385F832310028CAD160
:1037000085F81501C7E7FDF7ABFD00BF00080020F5
:10371000856B0100A47009006400840300000000B0
:1037200010B5084B82B01C680194019C1B689C4238
:1037300005D1012302B0BDE8104000F039BFFDF70C
:103740008FFD00BF00080020000000000000000006
:1037500030B5184C90F8DA30226883B0042B01920F
:103760000D460DF1030211D0142102F069FE20B9BB
:103770009DF80330DB0706D42870019A23689A422B
:1037800015D103B030BD01232B70F6E7132102F0F1
:1037900057FE9DF8033013F0180F03F0070318BF0E
:1037A0006FF00500042BEED000232B70E5E7FDF74A
:1037B00057FD00BF000800200000000000000000CE
:1037C0002DE9F047564F8EB03B680D930C460C2305
:1037D0000AAA1421054602F0B3FD8646002840F0EF
:1037E0008B809DF82EE09DF830C09DF82F209DF82D
:1037F00031109DF82A609DF82B30A07502EB0E2247
:1038000001EB0C2192B289B249025202C4E90321B0
:1038100003EB0623C4E900009BB2A3829DF832802B
:103820009DF83360B5F852E195F831C19DF8281044
:1038300006EB0826BEF57A7FB6B21FD006FB0EF661
:10384000DFF8E09095F81C80D5F820E006F5FA76D0
:10385000A9FB0696B609B8F1000F0ED01FFA8EFE2E
:1038600003FB0EFE4FEA2E2E72454DD0B6B202FB80
:1038700006F6A2EB0E0EB6FBFEF6B6B2BCF1000FDA
:1038800047D0B001C0B2B608E0750DF10B0026813B
:10389000CDE90040284602F043FA864660BB9DF819
:1038A0000B8084F8188005F150060FCE0DF10C0C3A
:1038B000ACE80F002389ADF8143096E8070063895F
:1038C000ADF81630E36894F817A0B4F81490069396
:1038D0002369646804948CE8070003AC8DF82480A5
:1038E0008DF823A00793ADF820900FCC50350FC56D
:1038F0009CE8070086E807000D9A3B689A427046EC
:103900000CD10EB0BDE8F087BCF1000F03D148F632
:10391000E0260020B8E740F6AE06B5E7FDF7A0FCCC
:1039200000080020D34D62100000000000000000DD
:103930002DE9F041134D144C296882B016460191CF
:103940000DF102020E211F46804602F091FDBDF8E6
:10395000023004EA4343336050B90DF1020240469D
:103960000C2102F085FDBDF8023004EA43443C60BE
:10397000019A2B689A4202D102B0BDE8F081FDF7AE
:103980006FFC00BF000800200000FE1F00000000C8
:10399000F0B590F8DA30254C85B0013B22680392EF
:1039A000022B07D90025039A23689A4228463AD168
:1039B00005B0F0BD02AB0F4601AA01210646FFF794
:1039C000B7FF019BB3F57F0F05461FD9002DEAD144
:1039D0001FBB0422FF21304602F0D2FC2A460746D4
:1039E0007021304602F0CCFC2A460743FF213046C6
:1039F00002F0C6FC7FB22A46802147EA0005304625
:103A000002F0BEFC6DB205436DB2CCE7029BB3F58C
:103A10007F0FC8D9002DDBD0C5E73046044901F03F
:103A20009FFE0546BFE7FDF71BFC00BF0008002016
:103A30004409002000000000000000000000000019
:103A4000F0B53F4F057C3B6883B0044601228021DE
:103A5000019302F095FC0122FF21204602F090FC28
:103A600000221146204602F08BFC94F83A21912165
:103A7000204602F085FC01220021204602F080FC55
:103A80000022FF21204602F07BFC204600228021FC
:103A900002F076FC012D37D017D3032D08D06FF03C
:103AA0000706019A3B689A42304647D103B0F0BD01
:103AB00068B304220021204602F062FC064600287A
:103AC000EFD1042384F83231EBE7012200212046B4
:103AD00002F056FC012306468DF803300028E0D1A1
:103AE00005462DB301350DF103020021204602F0F9
:103AF000A7FC9DF80330DB0713D590B9B5F5FA6F35
:103B0000EFD16FF00606CCE730B10222D2E70121F7
:103B10002046FFF73DFFCCE729462046FFF738FF58
:103B2000F3E7B5F5FA6F14BF06466FF00606B8E77F
:103B30009DF80330DA07B4D50225D4E7FDF790FBF2
:103B4000000800200000000000000000000000004D
:103B500030B5114C037C226883B0019283B90546CD
:103B6000FFF76EFF30B9284600F072FF10B903234B
:103B700085F83231019A23689A420AD103B030BDE8
:103B8000019A23689A4204D103B0BDE8304000F0A6
:103B90005FBFFDF765FB00BF0008002000000000CC
:103BA000F0B51A4F83B03B68019306460025012209
:103BB0000B21304602F0E4FB002204460B21304684
:103BC00002F0DEFB0DF1030204431321304602F044
:103BD00037FC9DF8033064B2204301355B0740B2E7
:103BE000EDB20CD0032D07D00028E0D0019A3B683D
:103BF0009A4209D103B0F0BD6FF00B00F6E7032D38
:103C000008BF6FF00B00F1E7FDF72AFB000800206A
:103C100070B5124C82B000222368027405460E462D
:103C20000193FFF795FF28B1019A23689A4212D1B8
:103C300002B070BD31462846FFF7C2FD0028F3D11F
:103C4000019A23689A4206D10146284602B0BDE88F
:103C50007040FFF7A5BFFDF703FB00BF0008002081
:103C6000F0B5574D83B02C680194152906463AD01B
:103C700014461F46042A00F2A080DFE802F0213239
:103C80002E30030004220A21304602F079FBF0B9FD
:103C9000002F14BF10230023EF228421304602F0AE
:103CA0009FFBA0B9019A2B6886F8DA409A4240F04F
:103CB00082800146304603B0BDE8F040FFF770BF98
:103CC00000220A21304602F05BFB0028E0D0019A76
:103CD0002B689A426FD103B0F0BD0222D3E70322D2
:103CE000D1E70122CFE70122FF2102F049FB0022A8
:103CF00011460446304602F043FB00220443FF21F4
:103D0000304602F03DFB64B201220443802130467C
:103D100002F036FB64B2022204438521304602F0F1
:103D20002FFB64B204220443FF21304602F028FB3B
:103D300064B200220443CD21304602F021FB64B27C
:103D400011220443CC21304602F01AFB64B2072250
:103D50000443FF21304602F013FB64B20022044307
:103D6000BE21304602F00CFB64B206220443FF2160
:103D7000304602F005FB64B209220443CC213046F0
:103D800002F0FEFA64B200220443FF21304602F042
:103D9000F7FA64B201220443FF21304602F0F0FA40
:103DA00064B2002204431146304602F0E9FA64B2DC
:103DB000204340B28BE7FDF753FA6FF00A0086E725
:103DC00000080020000000000000000000000000CB
:103DD000F0B5704F97B004463B6815934022002120
:103DE00005A80BF095FC002320460121ADF80A3010
:103DF0008DF807308DF80830039300F091FE94F8A9
:103E00001421012A06D894F8131100F0B9800C2966
:103E100040F2B98002AA03A9204600F0F9FB05464A
:103E2000002D40F0A38094F85031002B00F0A580C5
:103E30005949204601F094FC0546002840F0968040
:103E40002B46294604222046FFF70AFF0546002894
:103E500040F08C800122FF21204602F091FA0DF102
:103E60000A0206468421204602F002FB2A46FF2170
:103E700046EA0005204602F083FA6DB205436DB2B2
:103E8000002D73D1BDF80A301B01C4F8D43005A948
:103E90002046FFF71DFB0546002867D10DF10702FC
:103EA0000921204602F0CCFA054600285ED105AE75
:103EB0000FCE9DF807C004F110050CF0010C84F83A
:103EC00031C10FC50FCE0FC50FCE0FC596E80F003D
:103ED0008DF807C085E80F000DF10702012120468B
:103EE00002F0AEFA0546002840D19DF8073084F86C
:103EF0003031024601462046FFF7B2F80546A8BB1E
:103F0000024602212046FFF7ABF8054670BB0323AB
:103F1000014684F832310DF10902204601F008FB18
:103F2000054618BB9DF8093084F8E8300DF1090208
:103F30000121204601F0FCFA0546B8B99DF8093088
:103F400084F8E03004AA0321204601F0C9F80546B0
:103F500060B9049BC4F8E43004AA0421204601F0AF
:103F6000BFF8054610B9049BC4F8DC30159A3B68CD
:103F70009A4228460CD117B0F0BDD4F84C1158E73E
:103F800020293FF647AF204600F042F9054647E7B3
:103F9000FDF766F90008002050080020000000002E
:103FA00010B5074B82B01C680194019C1B689C42B1
:103FB00004D102B0BDE8104000F02ABBFDF750F973
:103FC00000080020000000000000000000000000C9
:103FD00030B5134C83B00D46236801930DF10202F6
:103FE000282102F045FA50B9BDF80230C3F30B03A3
:103FF000B3F5006F09D2FA2202FB03F32B60019A9A
:1040000023689A420AD103B030BDA3F58053C3EBB5
:10401000431203EB82035B002B60F0E7FDF720F90E
:104020000008002000000000000000000000000068
:10403000F0B5DFF860C083B0DCF800400194D70829
:104040004FF0FF348F421C6017D23C1902F0070278
:1040500020443E4610F8015FBE4203BF1541EDB259
:104060001446002415F0010F0ED10134082C4FEA3C
:104070005505F7D10136B142ECD1019ADCF8003098
:104080009A4205D103B0F0BD04EBC6041C60F4E70E
:10409000FDF7E6F800080020000000000000000026
:1040A0002DE9F04F87B0354CDDF84C802468129E26
:1040B00005941F46149B01900296DDE9105B009366
:1040C000B8F1000F33D08A46914600241AE003EB82
:1040D0000B0292092A4951F82220003218BF01220E
:1040E000524518D1DA08954207D9B85C03F00701A8
:1040F000012606FA01F10143B9540134A04503F148
:10410000010614D002AB324629464846FFF790FF1D
:10411000029B5A1CDBD1009B6FF031001E60174BD5
:10412000059A1B689A4227D107B0BDE8F08F009B23
:1041300001981E603A460623B02102F0E1F80028FB
:10414000EDD1019803AA0623B02102F0F9F8002D61
:10415000E5D09DF80C203B789A420AD13D4403AB50
:104160000137AF42DBD017F8012B13F8011F914242
:10417000F7D06FF03100D2E7FDF772F800080020A9
:10418000FC0A002000000000000000000000000009
:10419000F0B51D4D90F830612B6889B00F46C022F4
:1041A00001210446079302F0EBF828B1079A2B6827
:1041B0009A4226D109B0F0BD69462046FFF728FD96
:1041C0000028F3D10122FF21204602F0D9F800286F
:1041D000ECD13A46B621204602F04AF90028E5D152
:1041E0000246FF21204602F0CBF80028DED13246FD
:1041F0000121204602F0C4F80028D7D184F83061AC
:10420000D4E7FDF72DF800BF0008002000000000F3
:10421000F0B52F4E89B00F4615463368079301223B
:10422000FF21044602F0ACF8A8B30021C4F8241121
:10423000A4F828116DB327488368012203B306A8A8
:10424000B4220623CDE90032CDE90217049004F52B
:10425000927304F5957229462046FFF721FF30B985
:10426000012384F8137184F8145184F81531079AE6
:1042700033689A422AD109B0F0BD2C290A46DED013
:1042800002F1B5039B09511C50F82330002BF4D0E8
:10429000D5E72946D3E702464F21204602F070F8C1
:1042A0000028C2D12C224E21204602F069F8024695
:1042B0000028BAD1FF21204602F062F80028B4D1CC
:1042C000B422B621204602F05BF8AEE7FCF7C8FF47
:1042D00000080020FC0A0020000000000000000090
:1042E00030B5164C83B041F00102236801930021E0
:1042F000054602F045F8024630B10199236899421B
:10430000104619D103B030BD284600F0A1FB02468B
:104310000028F2D101462846FFF742FC0246002859
:10432000EBD101992368994206D12846114603B082
:10433000BDE8304002F024B8FCF792FF00080020EE
:104340002DE9F04F87B03F4F109C039400263C6846
:1043500002928A460122FF210546019305948DF8B9
:104360001360DDF844809DF848B09DF84C9002F051
:1043700007F8324604463146284602F001F8324634
:104380000443FF21284601F0FBFF64B2044364B2FA
:10439000BAF1000F27D0BBF1000F33D1B9F1000FF4
:1043A0003AD10122FF21284601F0EAFF012204430D
:1043B0000021284601F0E4FF64B200220443FF21FB
:1043C000284601F0DDFF9DF81330059A23F0100315
:1043D00088F800303B6864B220439A4240B22FD143
:1043E00007B0BDE8F08FBBF1000F1ED1B9F1000F8F
:1043F000D7D0019B8022EE21284601F0F1FF044333
:1044000064B2CEE7039ACB21284602F019F80443A0
:1044100064B2B9F1000FC4D00DF11302EE212846A9
:1044200002F00EF8044364B2BBE7029ACB2128469F
:1044300001F0A6FF044364B2B9F1000FB1D0D8E790
:10444000FCF70EFF00080020000000000000000044
:104450002DE9F0472A4F86B03C68059400240546B4
:10446000884691468DF813401E469BB1012290F874
:1044700030A11146284601F083FF044698B100237D
:1044800088F80030059A3B689A42204635D106B03C
:10449000BDE8F0870122114628469A4601F070FFD8
:1044A00004460028EBD140212846FFF719FF0446B7
:1044B0000028E4D1B9F1010F0ED088F80000002ED9
:1044C000E0D052460121284601F05AFF0446002858
:1044D000D8D185F830A1D5E70DF11303CDE90290CD
:1044E000019302460346CDF8008049462846FFF76F
:1044F00027FF0028E3D00446C4E7FCF7B1FE00BF65
:104500000008002000000000000000000000000083
:104510002DE9F047254F86B03C680594054688464E
:1045200091461E469BB190F830A1022201212846F7
:1045300001F026FF044660B1002388F80030059A98
:104540003B689A4220462ED106B0BDE8F0879A46D5
:10455000EBE701462846FFF7C3FE04460028EBD1EF
:10456000B9F1010F0ED088F80000002EE7D05246B6
:104570000121284601F004FF04460028DFD185F818
:1045800030A1DCE70DF11303CDE9020900930246E7
:104590000346CDF8048049462846FFF7D1FE00289F
:1045A000E3D00446CBE7FCF75BFE00BF0008002029
:1045B0002DE9F041144C90F8307182B01E4623680A
:1045C00001939046002332460546FFF741FF30B184
:1045D000019A23689A4214D102B0BDE8F0810346E3
:1045E000324641462846FFF793FF0028F0D13A466D
:1045F0000121284601F0C4FE0028E9D185F8307178
:10460000E6E7FCF72DFE00BF0008002000000000D8
:104610002DE9F04FDFF8B0A2B0F83C71DAF80040B5
:1046200095B00023CDE90912C0F82431A0F8283153
:104630000122FF2106461394CDE90F338DF838305F
:104640008DF8393001F09CFE054648B1139ADAF82E
:1046500000309A42284640F0318115B0BDE8F08F15
:1046600002464F21304601F08BFE05460028EDD171
:104670002C224E21304601F083FE05460028E5D16C
:104680000246FF21304601F07BFE05460028DDD1C1
:10469000B422B621304601F073FE05460028D5D17C
:1046A00002468021304601F06BFE05460028CDD140
:1046B00003460DF139020EA93046FFF779FF054692
:1046C0000028C3D10DF1500B06F595734BF8140D6E
:1046D0000320039006F592780620B4240D930295EA
:1046E00029461A46CDE90004CDF810B043463046BD
:1046F000FFF7D6FC05460028A8D10DF13A01304657
:104700000F9CFFF745FD054600289FD1BDF83A30C4
:10471000BB4230D904F1B4039B096A4951F8232004
:104720000023C6F82431A6F82831002A40F0BF80C3
:104730002B2C03D9BBE02C2A144607D004F1B50377
:104740009B09621C51F82330002BF4D0B4210623BE
:104750004FF00309CDE90031CDE90229CDF810B0C1
:1047600043460D9A01213046FFF79AFC002800F0DD
:104770008D8005466AE700220C9291460792BB4263
:1047800066D2DB1B002BB8BF5B42B8F80420D8F818
:10479000000008930B959DF81C300D9DADF8482046
:1047A00011900C934FF0030B224610AB06212846C4
:1047B000FFF73EFC109C631C10D004F1B403414A87
:1047C0009B0952F82330079A003318BF0123934204
:1047D00059D1E308052B0BF1010902D96FF031051E
:1047E00034E718F8031004F00702012000FA02F27F
:1047F0000A4308F80320B02106234246304601341C
:1048000001F07EFD0028B4D10DF13A013046FFF7EA
:10481000BFFC0028ADD1BDF83A20D31B002BB8BF98
:104820005B42BA4225D9089A0B9D934210D90623C0
:1048300011AAB021304601F063FDBDF848200346BF
:104840001198C6F82401D946A8F80420002B37D1C6
:10485000099A0A999DF83040C2F8009001230C7023
:1048600086F81531136886F813310B7886F8143101
:10487000ECE6D8F80000B8F8042011900893CB4675
:10488000ADF8482090E70B9DD946E1E70DF13A01DC
:1048900030460F9CFFF77CFC00287FF46AAFBDF820
:1048A0003A30BB4205D901220C92079267E72246B3
:1048B0004CE701220C908146079260E7FCF7D0FCA0
:1048C0001D46C3E6FC0A002000080020000000008E
:1048D00010B50E4982B00B680193013830F0FF0328
:1048E00009D000234008013320F0FF029BB2002AC8
:1048F000F8D11B029BB2019C0A681844944280B212
:1049000001D102B010BDFCF7ABFC00BF00080020D5
:104910002DE9F0434B4E85B03368039303291746C6
:10492000054657D0042940F0878001A9FEF710FC06
:104930009DF8070078BB80460DF101094A46012128
:104940002846FEF775FB0446E8B99DF801203E4B6A
:104950003E4803FB02F303F5FA73A0FB0323DA09D5
:104960004FF47A709B0900FB0720B0FBF3F010EBCB
:1049700008005DD102467121284601F019FD044668
:1049800008B9C5F8DC70039A33689A42204656D1BC
:1049900005B0BDE8F0830DF101094A460021284623
:1049A000FEF746FB04460028EDD10DF1020251212D
:1049B000284601F05DFDBDF802305FFA83F81B0A5E
:1049C00008FA03F808F101081FFA88F804460028DD
:1049D000B4D0D8E70DF101020021FEF729FB9DF8C4
:1049E0000120194B044603FB02F3184803F5FA7340
:1049F000A0FB0323DA094FF47A709B0900FB072020
:104A0000B0FBF3F080B280B9ADF80200A5F8D80091
:104A1000002CB8D102465121284601F0C9FC0446B9
:104A20000028B0D1C5F8E470ADE7FFF751FFEBE720
:104A3000FFF74EFF02469EE76FF00304A3E7FCF783
:104A40000FFC00BF00080020002F3A00D34D621079
:104A5000F0B5134F83B002AE00223B6806F8052D77
:104A6000054601934FF4FA6408E09DF80330012BEA
:104A70000AD0013C0ED0284601F02AFD31462846D6
:104A8000FEF766FE0028F0D0019A3B689A4204D1F6
:104A900003B0F0BD6FF00600F6E7FCF7E1FB00BFE6
:104AA00000080020000000000000000000000000DE
:104AB000F0B5174F83B03B6801930022832106466F
:104AC00001F05EFC044680B94FF4FA6502E060B97B
:104AD000013D17D00DF103028321304601F0B0FCF7
:104AE0009DF803300446002BF1D00122304683218B
:104AF00001F046FC019A3B6820439A4240B204D13F
:104B000003B0F0BD6FF00604EFE7FCF7A9FB00BFB0
:104B1000000800200000000000000000000000006D
:104B20002DE9F04FDFF8B48590F8F060D8F8003048
:104B300091B04FF0000B072E0F93CDE906BB0AD1C1
:104B40005C460F9AD8F800309A42204640F0C48262
:104B500011B0BDE8F08F0F4601228021054601F01B
:104B60000FFC01228146FF21284601F009FC5A462C
:104B700049EA00095946284601F002FC4FFA89F932
:104B8000062249EA0009FF21284601F0F9FB4FFA05
:104B900089F949EA00090DF111028321284601F043
:104BA0004FFC9DF811204FFA89F949EA000942F0BB
:104BB00004028321284601F0E3FB4FFA89F907221A
:104BC00049EA0009FF21284601F0DAFB4FFA89F98A
:104BD0000122812149EA0009284601F0D1FB4FFA60
:104BE00089F949EA0009284601F072FC4FFA89F96F
:104BF00049EA000901228021284601F0C1FB4FFA51
:104C000089F949EA000017F0010A44B213D0F3070A
:104C100040F1FE8117F00203CDE901BB009310D1F2
:104C200017F0040B00F0EA80700740F16B8100235D
:104C300003939946E5E0CDE901AA17F0020300933A
:104C4000EED016F00209EBD102229421284601F0A1
:104C500097FB83462846FFF72BFF4BEA00000443EF
:104C60000DF112029021284601F0EAFB64B27B228A
:104C700094210443284601F083FB64B20443284690
:104C8000FFF716FF64B20DF113020443902128468A
:104C900001F0D6FB64B2772294210443284601F048
:104CA0006FFB64B204432846FFF702FF64B204437B
:104CB00005AA9021284601F0F3FB059B64B2DA00B7
:104CC000C3F38641044302F07802C3F3C6204FEADF
:104CD000536C8DF81120C3F3061378228DF8291038
:104CE0008DF82A00942128468DF828C08DF82B30A5
:104CF00001F046FB64B204432846FFF7D9FE64B2D4
:104D000005AA04439021284601F0CAFB059B9DF8A3
:104D100011C0990101F0400164B2C3F3865204430B
:104D20008DF81110C3F30620C3F3C6310CEB537C8E
:104D30008DF82D20C3F3460379228DF82E108DF8BF
:104D40002F00942128468DF82CC08DF8303001F0CA
:104D500017FB64B204432846FFF7AAFE64B205AA13
:104D600004439021284601F09BFB059B9DF81120F0
:104D700064B202EB9362C3F3C6414FEA830C04436F
:104D8000C3F306300CF07C0CC3F346138DF83120CE
:104D90008DF832107A2294218DF8330028468DF850
:104DA00011C08DF8343001F0EBFA64B204432846A8
:104DB000FFF77EFE64B205AA04439021284601F065
:104DC0006FFB059B9DF811208DF83A9064B202EBC1
:104DD0009372C3F3C65EC3F3064CC3F34621044388
:104DE000C3F3860364B28DF835208DF836E08DF874
:104DF00037C08DF838108DF8393011E7CDF80CB088
:104E0000D94600228121284601F0BAFA062204433D
:104E1000FF21284601F0B4FA64B20DF111020443F7
:104E20008321284601F00CFB9DF8112064B2044355
:104E300002F0FB028321284601F0A2FA64B20122AB
:104E40000443FF21284601F09BFA64B20122044387
:104E50000021284601F094FA64B200220443FF21A5
:104E6000284601F08DFA64B20443002280212846CE
:104E700001F086FA64B2044364B2002C7FF461AEA0
:104E8000BAF1000F14D0F10712D49DF8043085F860
:104E900013319DF8083085F8143108A905F595728D
:104EA00005F5987C11F8013B02F8013B6245F9D108
:104EB000009B73B1B2070CD49DF812109DF813201B
:104EC00085F8F11085F8F2200AA905F1F3000AF03F
:104ED000B7FCBBF1000F11D073070FD4039B069AE8
:104EE000C5F818215B02C5F82031079BC5F81C31B5
:104EF000B9F1000F40F0E3804B46EB603E4385F88C
:104F0000F0601EE67B229421284601F039FA8146A2
:104F10002846FFF7CDFD49EA0000044306AA902188
:104F2000284601F0BDFA64B27C229421044328464D
:104F300001F026FA64B204432846FFF7B9FD64B2D3
:104F400007AA04439021284601F0AAFA64B273220A
:104F500094210443284601F013FA64B2044328461E
:104F6000FFF7A6FD64B2044305AA9021284601F08C
:104F700097FA059A64B213029421742204432846D6
:104F80001FFA83F901F0FCF964B204432846FFF7E5
:104F90008FFD64B205AA04439021284601F080FAEF
:104FA0009DF8173064B243EA090375229421044343
:104FB0002846039301F0E4F964B204432846FFF75E
:104FC00077FD64B205AA04439021284601F068FAEF
:104FD000059A64B2942104434FEA022928467622B6
:104FE00001F0CEF964B204432846FFF761FD64B2D4
:104FF00005AA04439021284601F052FA64B29DF8B4
:1050000017201FFA89F9044364B242EA0909F8E655
:105010006B229421284601F0B3F981462846FFF718
:1050200047FD49EA0000044305AA9021284601F003
:1050300037FADDF814C064B2CCF30623242294219D
:10504000044301932846CCF3C033029301F098F94E
:1050500064B204432846FFF72BFD64B205AA04435B
:105060009021284601F01CFA059B8DF82330190E7B
:1050700064B24FEA134C25221B0A04438DF820101A
:10508000284694218DF822308DF821C001F078F95E
:1050900064B204432846FFF70BFD64B205AA04433B
:1050A0009021284601F0FCF9059B64B21A0E0443D6
:1050B0001B0C64B28DF824208DF82530BDE5A9F5D0
:1050C000C8534FF47A7909FB03F94FEA1919C9F16A
:1050D00000090FFA89F310E7FCF7C2F80008002076
:1050E0002DE9F0435D4D87B000242B68059302291C
:1050F00016468DF80740ADF8084007460DD903293C
:105100004FD004292AD020463460059A2B689A4251
:1051100040F0A18007B0BDE8F08321460DF1060202
:10512000FDF786FF28B938460DF10702462101F048
:1051300087F99DF806104A4B4A4A9DF8074003FB41
:1051400001F303F5FA73A2FB03139B0904FB03337A
:1051500003F5FA74A2FB0434A409D5E703A9FDF70B
:10516000F7FF9DF80F30002B48D00DF106094A4695
:1051700021463846FDF75CFF00284CD09DF806100C
:10518000374B384A03FB01F303F5FA73A2FB031311
:105190009B0904FB03F404F5FA74A2FB0434A4098C
:1051A000B2E70DF106022146FDF742FF0028ABD120
:1051B00001460DF106023846FDF73AFF20B93846A0
:1051C00002AA512101F054F9BDF808109DF80670AB
:1051D000234C244ACBB204FB07F4090A8B4004F5A4
:1051E000FA740133A2FB04149BB2A40904FB03F478
:1051F00004F5FA74A2FB0434A40985E798460DF17E
:1052000006094A4601213846FDF712FF98B1C8F158
:105210000004A4B2B2E702AA5121384601F028F9ED
:10522000BDF80830DCB21B0A9C4001341FFA84F838
:105230000028E6D0EBE738460DF10A02712101F0B3
:1052400017F9BDF80A30DCB21B0A9C400134A4EB0C
:105250000804A4B292E7FCF703F800BF000800209E
:10526000002F3A00D34D6210000000000000000043
:1052700070B51E4C82B023680193022907D9FFF74D
:1052800047FB019A23689A422DD102B070BD1546A2
:1052900000210DF103020646FDF7CAFE0028F0D1F9
:1052A0009DF80310124B134A03FB01F303F5FA7345
:1052B000A2FB0323DA094FF47A719B0901FB052550
:1052C000B5FBF3F5ABB2B3F5807F09D8013DEAB287
:1052D00093B2A6F8D8303046462101F051F8D0E715
:1052E000FF231A46F5E7FBF7BBFF00BF00080020CD
:1052F000002F3A00D34D62100000000000000000B3
:105300002DE9F041864E88B0174633680793002296
:1053100017F001088DF80F204BD1054661BBA7F1AE
:105320000C03062B45D80C2F46D00E2F50D0102F33
:1053300050D0122F78D07B08013B05AA03212846C4
:10534000DCB2FFF7CDFE002846D085F8E87058B9EA
:1053500069692846FDF73CFE30B90246012328461C
:105360000DF10F01FFF7D4F8079A33689A4240F025
:10537000D58008B0BDE8F08101291AD1A7F1080253
:10538000062A16D8082F51D00A2F00F082800C2F41
:1053900000F0A0800E2F00F0AF807B08013B04AA34
:1053A00004212846DCB2FFF79BFE80B385F8E0704D
:1053B000CDE76FF00300D7E71822572100F0E0FF98
:1053C00008225621284600F0DBFF0028CCD1B2E7A6
:1053D0003022F2E74022F0E706AA02212846FFF732
:1053E0007FFE0028B1D122465021284600F0C8FF98
:1053F0000028AAD1059A03212846FFF789FA002838
:10540000A3D1069A02212846FFF732FF9DE72246E4
:105410007021284600F0B4FF0028C7D1049A042167
:105420002846FFF775FAC1E75022C6E7019110221E
:10543000482100F0A5FF3A464721284600F0A0FF8A
:10544000022204463221284600F09AFF0C2204432F
:105450003021284600F094FF019B64B21A460443B1
:10546000FF21284600F08CFF64B230220443302133
:10547000284600F085FF64B204434246FF212846D7
:1054800000F07EFF64B2204340B200287FF46CAF8E
:1054900083E701912822482100F072FF082247216A
:1054A000284600F06DFF032204463221284600F012
:1054B00067FF092204433021284600F061FF019B69
:1054C00064B21A460443FF21284600F059FF64B233
:1054D0002022CBE701913822482100F051FF082219
:1054E0004721284600F04CFF03220446322128467B
:1054F00000F046FF0822DDE748220191114600F046
:105500003FFF08224721284600F03AFF03220446C5
:105510003221284600F034FF0722CBE7FBF7A0FE3C
:105520000008002000000000000000000000000053
:1055300030B5124C83B0236801931546B1B10129EF
:1055400007D06FF00300019A23689A4214D103B088
:1055500030BD0DF10302702100F072FF0028F2D17E
:105560009DF8033001335B002B70ECE70DF1030273
:10557000502100F065FFF1E7FBF772FE0008002004
:105580002DE9F041384D86B02B6805930E4644F660
:105590001F634FF4FA6100229E42CDE901125BD9EC
:1055A00003A90746FDF7D4FD0446C0B99DF80C30A9
:1055B000A6F63638DBB99DF80D30C3B99DF80E302C
:1055C000ABB99DF80F30A3BB9DF810303BB1A8F2EA
:1055D000262204213846FFF79BF97E610446059A8E
:1055E0002B689A4220463DD106B0BDE8F08101AA61
:1055F00002213846FFF774FD30BB9DF80C3033B103
:10560000019B03F24E23984526D9A8EB03089DF889
:105610000E30DBB99DF80D30002BD2D0019B03F585
:105620002573984518D9A8EB03089DF80F30002B77
:10563000CAD002AA03213846FFF752FD029B03F5A8
:105640002573434508D250B10446C8E7019B03F2D5
:10565000B2235B009845E6D86FF00304BFE7A8EBE0
:105660000308B1E7FBF7FCFD000800200000000084
:10567000F0B5374E87B00D4640F6363331680591A8
:105680002B604FF4FA62002303A9CDE901230746FA
:10569000FDF75EFD0446E8B99DF80C300BBB9DF8A4
:1056A0000D30F3B99DF80E30DBB99DF80F3063B1C2
:1056B00002AA03213846FFF713FD029A2B6802F570
:1056C000257213442B60002835D19DF810302BBB78
:1056D0002B687B61059A33689A42204635D107B022
:1056E000F0BD01AA02213846FFF7FAFC18BB9DF86D
:1056F0000C302BB1019A2B6802F24E2213442B601E
:105700009DF80E30CBB99DF80D30002BCDD0019A0D
:105710002B6802F5257213442B60C6E76A46042104
:105720003846FFF7DDFC009A2B6802F2262213446C
:105730002B600028CDD00446CCE7019A2B6802F2FA
:10574000B22203EB42032B60AFE7FBF789FD00BFFA
:105750000008002000000000000000000000000021
:10576000F0B5324F0B783A6883B00192002B42D0EB
:105770000D4606460024621CFF2B09D0042B0ED9CF
:105780006FF00300019A3B689A424CD103B0F0BD20
:10579000AB5C032BF4D8DFE803F03B302419A95CA1
:1057A000541C68462A440DEB030E12F801CF00F892
:1057B00001CB7045F9D11C446A46304600F0A0FD8B
:1057C0002B5D002BDED00028D5D0DBE7AB18587856
:1057D000997801EB0021A6F83C11DB785BB104322B
:1057E000CAE7AB185878997801EB0021A6F8381170
:1057F000DB78002BF3D10020C4E7AB1858789978F8
:1058000001EB0021A6F83611DB78002BE7D1F2E797
:10581000AB185878997801EB0021A6F83411DB78A1
:10582000002BDCD1E7E7FBF71BFD00BF00080020E1
:10583000F0B515460F4C83B0002223682A600F464E
:105840000DF1030101930646FDF7DAFC48B99DF816
:10585000033033B1BA8A336A03FB02F380331B0A85
:105860002B60019A23689A4201D103B0F0BDFBF787
:10587000F7FC00BF0008002000000000000000004E
:10588000F0B5B0F85461D0F858514E4C05FB06F510
:1058900083B08035206801902D0A05FB06F5DDE90F
:1058A00008E7DDE90A605AB1890201EB5201B1FB58
:1058B000F2F202EB420202FB02F202F50042120C8B
:1058C00007F50041090CDFF80CC103310EFB03F3AF
:1058D000ACFB01E1890803F50043C1EBC1011B0CDE
:1058E000B1F5803F03FB03F362D2F91CACFB0171FD
:1058F0008908C1EBC10101F50041090C01FB01F16F
:1059000003EB56030B44B3FBF6F39B032E4F7F339D
:105910005B08A7FB03139B0903FB02F22B4902F56B
:10592000FA72A1FB02329209120102F5FA72A1FB8E
:10593000023105F120078909BF094FF080439B0818
:105940009F42FCD3002B38D0002603EB060CBC454D
:105950004FEA56069CBFA7EB0C07F6189B08F4D13C
:1059600049B11A4BA3FB023205EBD212B2FBF1F1A3
:10597000B1F1804F1ED24FF080439B088B42FCD880
:105980006BB10022D5188D424FEA52029CBF491BD1
:10599000D2189B08F6D1B242134628BF33460360A3
:1059A000019A23689A424FF0000008D103B0F0BD7D
:1059B0000749A5E74FF08043E3E71E46D0E7FBF732
:1059C0004FFC00BF0008002009040281D34D621083
:1059D0000000F0FFABAAAAAA00000000000000002F
:1059E0002DE9F04FC24F056A3E688FB0044604921D
:1059F0000CAA0B9505930D460D96D1E903B8FFF758
:105A000017FF002840F064810C9E5E440BAA2946D3
:105A10002046FFF70DFF002840F0538194F8E02066
:105A20004FF47A7E0EFB06F3082A03F5004314BFF9
:105A30004FF0030C4FF0020C190C079100F04A8153
:105A4000D4F8DC1094F8E8000691AA49DFF8BC927B
:105A5000D4F8E4A001FB02F201FB00F101F5FA71B8
:105A6000A9FB010102F5FA72A9FB0202C80908901C
:105A7000D0090990089889090EFB0A00B0FBF1F1E2
:105A800006980891014609980EFB010E08999209A3
:105A9000BEFBF2F21144C9020CFB01F202F5FA72EC
:105AA000A9FB0212920940F2776101FB02F202F5B2
:105AB000FA7206F18001A9FB02294FEA9919080A36
:105AC00009FB00F04FF47A728030000A02FB08F8FC
:105AD000894A079E18BF00EB40004FEA184814BFE0
