:020000040800F2
:1000000000040020C1010008912700089127000882
:10001000C11E0008912700089127000891270008B9
:100020009127000891270008912700080145000842
:10003000912700089127000891270008A1A900082E
:100040009127000821790008B17A0008017B000897
:10005000912700089127000861760008B176000812
:100060000177000851770008A1770008A16B00080C
:10007000F16B0008416C0008916C0008E16C00080D
:10008000316D0008816D0008D1740008A17C000862
:10009000117D0008C17D0008717E0008F17700081D
:1000A000912700089127000851A400089127000813
:1000B00061A50008A1A50008E1A50008318C000891
:1000C000718D0008912700089127000891270008EA
:1000D00091270008912700089127000861AA0008CD
:1000E0008178000871790008C1790008912700081B
:1000F000912700089127000891270008D16D00087A
:10010000912700080180000821A600089127000817
:10011000912700089127000811A4000891270008E2
:10012000216E0008716E0008C16E0008116F000892
:10013000616F000891270008117A000891270008D4
:1001400091270008912700089127000851A0000876
:10015000B16F000801700008517000089127000875
:10016000912700089127000891270008912700088F
:10017000617A000891270008A1140008912700085F
:10018000912700089127000891270008912700086F
:10019000912700089127000891270008912700085F
:1001A000912700089127000891270008912700084F
:1001B000912700089127000891270008912700083F
:1001C00072B62E4880F3098840F20000CCF200009D
:1001D0004EF63471CEF20001086040F20000C0F229
:1001E000F0004EF68851CEF2000108604FF000009A
:1001F000E1EE100A4EF63C71CEF2000108600620D6
:1002000080F31488BFF36F8F0AF072FD4FF0553002
:100210001B491C4A91423CBF41F8040BFAE71A49BA
:10022000164A91423CBF41F8040BFAE71749184AB5
:10023000184B9A423EBF51F8040B42F8040BF8E702
:1002400000201549154A91423CBF41F8040BFAE7DA
:1002500002F086FA124C134DAC4203DA54F8041B38
:100260008847F9E700F0D4FF0F4C104DAC4203DA99
:1002700054F8041B8847F9E702F082BA000800200E
:10028000000000200004002000040020C8F6000840
:1002900000080020D4110020D811002010240020D4
:1002A000C0010008C0010008C0010008C00100082A
:1002B0002DE9F04F2DED108AC1F80CD0D0F80CD0FC
:1002C000BDEC108ABDE8F08F02F0A2FB03F090FBBA
:1002D000002383F311882846A047002003F028F963
:1002E00003F06EFB02F074FB02F092FF02F090FB51
:1002F00003F07EFB00DFFEE70000000000000000CE
:1003000081F0004102E000BF83F0004330B54FEAC6
:1003100041044FEA430594EA050F08BF90EA020F33
:100320001FBF54EA000C55EA020C7FEA645C7FEAC6
:10033000655C00F0E2804FEA5454D4EB5555B8BFE9
:100340006D420CDD2C4480EA020281EA030382EA5A
:10035000000083EA010180EA020281EA0303362DEC
:1003600088BF30BD11F0004F4FEA01314FF4801CBF
:100370004CEA113102D0404261EB410113F0004FD1
:100380004FEA03334CEA133302D0524263EB430388
:1003900094EA050F00F0A780A4F10104D5F1200E26
:1003A0000DDB02FA0EFC22FA05F2801841F1000181
:1003B00003FA0EF2801843FA05F359410EE0A5F155
:1003C00020050EF1200E012A03FA0EFC28BF4CF086
:1003D000020C43FA05F3C01851EBE37101F000453C
:1003E00007D54FF0000EDCF1000C7EEB00006EEB49
:1003F0000101B1F5801F1BD3B1F5001F0CD34908D3
:100400005FEA30004FEA3C0C04F101044FEA445229
:1004100012F5800F80F09A80BCF1004F08BF5FEAB0
:10042000500C50F1000041EB045141EA050130BD90
:100430005FEA4C0C404141EB010111F4801FA4F133
:100440000104E9D191F0000F04BF01460020B1FA88
:1004500081F308BF2033A3F10B03B3F120020CDAC0
:100460000C3208DD02F1140CC2F10C0201FA0CF09E
:1004700021FA02F10CE002F11402D8BFC2F1200C03
:1004800001FA02F120FA0CFCDCBF41EA0C019040B9
:10049000E41AA2BF01EB0451294330BD6FEA040402
:1004A0001F3C1CDA0C340EDC04F11404C4F12002ED
:1004B00020FA04F001FA02F340EA030021FA04F3FF
:1004C00045EA030130BDC4F10C04C4F1200220FA56
:1004D00002F001FA04F340EA0300294630BD21FA94
:1004E00004F0294630BD94F0000F83F4801306BF5A
:1004F00081F480110134013D4EE77FEA645C18BF4E
:100500007FEA655C29D094EA050F08BF90EA020FE4
:1005100005D054EA000C04BF1946104630BD91EADC
:10052000030F1EBF0021002030BD5FEA545C05D1DF
:100530004000494128BF41F0004130BD14F580041E
:100540003CBF01F5801130BD01F0004545F0FE4192
:1005500041F470014FF0000030BD7FEA645C1ABFC7
:10056000194610467FEA655C1CBF0B46024650EAFE
:10057000013406BF52EA033591EA030F41F400212A
:1005800030BD00BF90F0000F04BF0021704730B5B0
:100590004FF4806404F132044FF000054FF0000185
:1005A00050E700BF90F0000F04BF0021704730B546
:1005B0004FF4806404F1320410F0004548BF40421B
:1005C0004FF000013EE700BF42004FEAE2014FEA70
:1005D00031014FEA02701FBF12F07F4393F07F4F4B
:1005E00081F06051704732F07F4208BF704793F04E
:1005F0007F4F04BF41F40021704730B54FF4607461
:1006000001F0004521F000411CE700BF50EA010263
:1006100008BF704730B54FF000050AE050EA01020C
:1006200008BF704730B511F0004502D5404261EB7C
:1006300041014FF4806404F132045FEA915C3FF4BD
:10064000D8AE4FF003025FEADC0C18BF03325FEA5A
:10065000DC0C18BF033202EBDC02C2F1200300FA0B
:1006600003FC20FA02F001FA03FE40EA0E0021FA30
:1006700002F11444BDE600BF0000000000000000CD
:1006800070B54FF0FF0C4CF4E06C1CEA11541DBF28
:100690001CEA135594EA0C0F95EA0C0F00F0DEF8F3
:1006A0002C4481EA030621EA4C5123EA4C5350EAD8
:1006B000013518BF52EA033541F4801143F4801329
:1006C00038D0A0FB02CE4FF00005E1FB02E506F0BA
:1006D0000042E0FB03E54FF00006E1FB03569CF00F
:1006E000000F18BF4EF0010EA4F1FF04B6F5007F15
:1006F00064F5407404D25FEA4E0E6D4146EB060687
:1007000042EAC62141EA55514FEAC52040EA5E500F
:100710004FEACE2EB4F1FD0C88BFBCF5E06F1ED8B9
:10072000BEF1004F08BF5FEA500E50F1000041EBF0
:10073000045170BD06F0004646EA010140EA02009D
:1007400081EA0301B4EB5C04C2BFD4EB0C0541EABF
:10075000045170BD41F480114FF0000E013C00F3D4
:10076000AB8014F1360FDEBF002001F0004170BDF8
:10077000C4F10004203C35DA0C341BDC04F1140411
:10078000C4F1200500FA05F320FA04F001FA05F29D
:1007900040EA020001F0004221F0004110EBD3706A
:1007A00021FA04F642EB06015EEA430E08BF20EA96
:1007B000D37070BDC4F10C04C4F1200500FA04F339
:1007C00020FA05F001FA04F240EA020001F00041CB
:1007D00010EBD37041F100015EEA430E08BF20EA3E
:1007E000D37070BDC4F1200500FA05F24EEA020E86
:1007F00020FA04F301FA05F243EA020321FA04F0B5
:1008000001F0004121FA04F220EA020000EBD3706B
:100810005EEA430E08BF20EAD37070BD94F0000F6B
:100820000FD101F00046400041EB010111F4801F9F
:1008300008BF013CF7D041EA060195F0000F18BF50
:10084000704703F00046520043EB030313F4801F8C
:1008500008BF013DF7D043EA0603704794EA0C0F46
:100860000CEA135518BF95EA0C0F0CD050EA41065C
:1008700018BF52EA4306D1D181EA030101F00041D9
:100880004FF0000070BD50EA410606BF1046194601
:1008900052EA430619D094EA0C0F02D150EA01360D
:1008A00013D195EA0C0F05D152EA03361CBF10464E
:1008B00019460AD181EA030101F0004141F0FE41ED
:1008C00041F470014FF0000070BD41F0FE4141F471
:1008D000780170BD70B54FF0FF0C4CF4E06C1CEA71
:1008E00011541DBF1CEA135594EA0C0F95EA0C0F26
:1008F00000F0A7F8A4EB050481EA030E52EA0335E1
:100900004FEA013100F088804FEA03334FF0805501
:1009100045EA131343EA12634FEA022245EA11152E
:1009200045EA10654FEA00260EF000419D4208BFDF
:10093000964244F1FD0404F5407402D25B084FEA8C
:100940003202B61A65EB03055B084FEA32024FF438
:1009500080104FF4002CB6EB020E75EB030E22BF95
:10096000B61A754640EA0C005B084FEA3202B6EB55
:10097000020E75EB030E22BFB61A754640EA5C0004
:100980005B084FEA3202B6EB020E75EB030E22BF94
:10099000B61A754640EA9C005B084FEA3202B6EB95
:1009A000020E75EB030E22BFB61A754640EADC0054
:1009B00055EA060E18D04FEA051545EA16754FEAB6
:1009C00006164FEAC30343EA52734FEAC2025FEAD4
:1009D0001C1CC0D111F4801F0BD141EA00014FF063
:1009E00000004FF0004CB6E711F4801F04BF014334
:1009F0000020B4F1FD0C88BFBCF5E06F3FF6AFAE50
:100A0000B5EB030C04BFB6EB020C5FEA500C50F1DF
:100A1000000041EB045170BD0EF0004E4EEA113162
:100A200014EB5C04C2BFD4EB0C0541EA045170BD69
:100A300041F480114FF0000E013C90E645EA060EAD
:100A40008DE60CEA135594EA0C0F08BF95EA0C0FDB
:100A50003FF43BAF94EA0C0F0AD150EA01347FF423
:100A600034AF95EA0C0F7FF425AF104619462CE7FA
:100A700095EA0C0F06D152EA03353FF4FDAE10465D
:100A8000194622E750EA410618BF52EA43067FF4AE
:100A9000C5AE50EA41047FF40DAF52EA43057FF43E
:100AA000EBAE12E7000000000000000000000000B4
:100AB0004FEA410212F5001215D211D56FF4787386
:100AC000B3EB625212D94FEAC12343F0004343EA29
:100AD000505311F0004F23FA02F018BF4042704704
:100AE0004FF00000704750EA013005D111F000408E
:100AF00008BF6FF0004070474FF00000704700BF24
:100B000053B94AB9002908BF00281CBF4FF0FF3174
:100B10004FF0FF3000F074B9ADF1080C6DE904CE70
:100B200000F006F8DDF804E0DDE9022304B07047C8
:100B30002DE9F047089E04468846002B4BD18A4297
:100B4000154667D9B2FA82F24AB1C2F1200701FA1A
:100B500002F320FA07F7954047EA030894404FEA6A
:100B6000154E230CB8FBFEF71FFA85FC0EFB178809
:100B700043EA084307FB0CF1994209D9EB1807F146
:100B8000FF3080F01B81994240F21881023F2B44D4
:100B90005B1AA4B2B3FBFEF00EFB103344EA03442D
:100BA00000FB0CFCA44509D92C1900F1FF3380F09F
:100BB0000781A44540F2048102382C4440EA0740F2
:100BC000A4EB0C0400271EB1D4400023C6E9004367
:100BD0003946BDE8F0878B4209D9002E00F0EB8042
:100BE0000027C6E9000138463946BDE8F087B3FA68
:100BF00083F7002F47D18B4202D3824200F2FA8062
:100C0000841A61EB030301209846002EE0D0C6E968
:100C10000048DDE702B9FFDEB2FA82F2002A40F0B6
:100C20008F80491B4FEA154E1FFA85F80127B1FB4B
:100C3000FEFC230C0EFB1C1143EA014308FB0CF1E4
:100C4000994207D9EB180CF1FF3002D2994200F219
:100C5000CD808446591AA3B2B1FBFEF00EFB1014EE
:100C600043EA044408FB00F8A04507D92C1900F119
:100C7000FF3302D2A04500F2B6801846A4EB080468
:100C800040EA0C409FE7C7F1200CBB4022FA0CFE63
:100C90004EEA030E01FA07F420FA0CF521FA0CF3E0
:100CA0004FEA1E482543B3FBF8F92C0C08FB193317
:100CB0001FFA8EFA44EA034309FB0AF49C4202FA43
:100CC00007F200FA07F10BD91EEB030309F1FF301D
:100CD00080F087809C4240F28480A9F1020973442D
:100CE0001B1BADB2B3FBF8F008FB103345EA03441D
:100CF00000FB0AFAA24508D91EEB040400F1FF33F9
:100D00006BD2A24569D90238744440EA0940A0FB7D
:100D10000289A4EB0A044C45C2464B4654D351D039
:100D2000002E69D0B1EB0A0564EB030404FA0CFC55
:100D3000FD40FC404CEA0505C6E90054002747E7A2
:100D4000C2F1200320FA03F7954001FA02F021FADC
:100D500003F34FEA154E3843010CB3FBFEF71FFABD
:100D600085F80EFB173341EA034107FB08F38B427A
:100D700004FA02F407D9691807F1FF3C2FD28B421D
:100D80002DD9023F2944CB1A81B2B3FBFEF00EFBF2
:100D9000103341EA034100FB08F38B4207D969187D
:100DA00000F1FF3C17D28B4215D902382944C91AE9
:100DB00040EA07473BE73746304609E70746E7E69C
:100DC0001846FBE64145ABD2B8EB020A69EB0E02CE
:100DD00001381346A4E76046E9E7184695E76746F9
:100DE000D1E781467CE702382C4447E7ACF1020C9E
:100DF0002B442FE7384608E73746E9E600000000B5
:100E0000704700BF0000000000000000000000006C
:100E1000844641EA000313F003036DD1403A41D305
:100E200051F8043B40F8043B51F8043B40F8043BC4
:100E300051F8043B40F8043B51F8043B40F8043BB4
:100E400051F8043B40F8043B51F8043B40F8043BA4
:100E500051F8043B40F8043B51F8043B40F8043B94
:100E600051F8043B40F8043B51F8043B40F8043B84
:100E700051F8043B40F8043B51F8043B40F8043B74
:100E800051F8043B40F8043B51F8043B40F8043B64
:100E900051F8043B40F8043B51F8043B40F8043B54
:100EA000403ABDD2303211D351F8043B40F8043BF4
:100EB00051F8043B40F8043B51F8043B40F8043B34
:100EC00051F8043B40F8043B103AEDD20C3205D304
:100ED00051F8043B40F8043B043AF9D2043208D0FC
:100EE000D2071CBF11F8013B00F8013B01D30B886E
:100EF00003806046704700BF082A13D38B078DD04C
:100F000010F003038AD0C3F10403D21ADB071CBF1D
:100F100011F8013B00F8013B80D331F8023B20F887
:100F2000023B7BE7043AD9D3013A11F8013B00F8C0
:100F3000013BF9D20B7803704B7843708B78837048
:100F40006046704700000000000000000000000044
:100F500090F800F06DE9024520F007016FF0000CF9
:100F600010F0070491F820F040F049804FF00004A1
:100F70006FF00700D1E9002391F840F000F108007C
:100F800082FA4CF2A4FA8CF283FA4CF3A2FA8CF3B4
:100F90004BBBD1E9022382FA4CF200F10800A4FA1B
:100FA0008CF283FA4CF3A2FA8CF3E3B9D1E904236F
:100FB00082FA4CF200F10800A4FA8CF283FA4CF3A6
:100FC000A2FA8CF37BB9D1E9062301F1200182FA60
:100FD0004CF200F10800A4FA8CF283FA4CF3A2FA66
:100FE0008CF3002BC6D0002A04BF04301A4612BA74
:100FF000B2FA82F2FDE8024500EBD2007047D1E977
:10100000002304F00305C4F100004FEAC50514F005
:10101000040F91F840F00CFA05F562EA05021CBFD6
:1010200063EA050362464FF00004A9E700000000F0
:1010300001F0FF01102A2BDB10F0070F08D010F889
:10104000013B013A8B422DD010F0070F42B3F6D18D
:10105000F0B441EA012141EA014122F007047FF0A6
:1010600000070023F0E80256083C85EA010586EAFD
:10107000010685FA47F5A3FA87F586FA47F6A5FA39
:1010800087F68EB9EED1F0BC01F0FF0102F0070245
:1010900032B110F8013B013A83EA010313B1F8D1F0
:1010A0000020704701387047002D06BF35460338D1
:1010B000073815F0010F07D1013015F4807F02BF0A
:1010C000013015F4C03F0130F0BC0138704700BF5B
:1010D0004FF0FF3C06E000BF4FF0010C02E000BF04
:1010E0004FF0010C4DF804CD4FEA410C7FEA6C5CE7
:1010F0004FEA430C18BF7FEA6C5C1BD001B050EA8A
:10110000410C0CBF52EA430C91EA030F02BF90EA74
:10111000020F0020704710F1000F91EA030F58BF33
:10112000994208BF90422CBFD8176FEAE37040F095
:10113000010070474FEA410C7FEA6C5C02D150EA33
:10114000013C07D14FEA430C7FEA6C5CD6D152EAEE
:10115000033CD3D05DF8040B704700BF84461046B3
:1011600062468C461946634600E000BF01B5FFF7B2
:10117000B7FF002848BF10F1000F01BD4DF808ED82
:10118000FFF7F4FF0CBF012000205DF808FB00BF53
:101190004DF808EDFFF7EAFF34BF012000205DF8AD
:1011A00008FB00BF4DF808EDFFF7E0FF94BF0120FA
:1011B00000205DF808FB00BF4DF808EDFFF7CEFFFB
:1011C00094BF012000205DF808FB00BF4DF808ED3A
:1011D000FFF7C4FF34BF012000205DF808FB00BF0B
:1011E0004FEA410C7FEA6C5C02D150EA013C0AD123
:1011F0004FEA430C7FEA6C5C02D152EA033C02D115
:101200004FF0000070474FF00100704700000000F1
:1012100010B5114C82B02368019303F0D1F901F0AD
:10122000CFFA00F0F5FD0D490D4804F009FC01F07E
:10123000FFF900F0E5F900F0BBFC01F021F900F046
:101240007FF800F0CDF8019A23689A4202D100207D
:1012500002B010BD00F00CF80008002004080020C7
:1012600064230020000000000000000000000000D7
:1012700000B5084B83B01A680192019A1B689A4224
:1012800005D1054803B05DF804EB01F001BBFFF7A1
:10129000EFFF00BF00080020E0E6000800000000AB
:1012A0002DE9F041DFF88C8082B01D460646D8F863
:1012B0000030019310460F4601F052F8284601F025
:1012C00067F800242546002DB8BF6D42B54207DB04
:1012D000002CB8BF6442BC42ACBF00240124CCB196
:1012E00001F06EF8054601F083F885EAE573A3EB9B
:1012F000E573B342044609DA84EAE473A3EBE473CA
:10130000BB42E0DB002001F043F8DCE7002001F005
:1013100027F8F1E7204601F083F8019AD8F8003069
:101320009A4205D1204602B0BDE8F04101F090B8E4
:10133000FFF79EFF000800200000000000000000F2
:1013400010B5224C82B04FF49673C82122680192E6
:1013500008461A46FFF7A4FF4FF47A7002F070F8BF
:1013600040F24C43C8211A460846FFF799FF4FF454
:101370007A7002F065F8164B4FF4C8711A460846A9
:10138000FFF78EFF4FF47A7002F05AF840F24311E3
:1013900008460F4B4FF4C872FFF782FF4FF47A7084
:1013A00002F04EF84FF4C8734FF496611A4608469F
:1013B000FFF776FF4FF47A7002F042F8019A236843
:1013C0009A4201D102B010BDFFF752FF0008002081
:1013D00070FEFFFF000000000000000000000000A1
:1013E00010B5194C82B04FF42F73C82122680192B6
:1013F00008461A46FFF754FF144BC8211A46084600
:10140000FFF74EFF4FF42F73C8211A460846FFF727
:1014100047FF0E4BC8211A460846FFF741FF4FF41D
:101420002F73C8211A460846FFF73AFF074BC82119
:101430001A460846FFF734FF019A23689A4201D101
:1014400002B010BDFFF714FF0008002044FDFFFFAD
:1014500030B5104D81682B680F4A83B001930B683B
:1014600023F001030B608168946A03E0936A1B1BFD
:10147000C72B09D8086810F00100F7D1019A2B6832
:101480009A4204D103B030BD4FF0FF30F6E7FFF7CA
:10149000EFFE00BF00080020401500200000000003
:1014A000F0B5284D83B02B68019302F051FA01F09A
:1014B0000FFB254B1E69F20715D55A69234C42F0E4
:1014C00001025A612778BB1F012B2AD905226368C4
:1014D00022701B680BB120469847042F27D0022F9B
:1014E00025D003232370B30710D5174A174C53692F
:1014F00043F0020353612378032B1DD063689B687C
:101500000622227013B101211048984701F008FB10
:10151000019A2B689A4213D103B0BDE8F04003F062
:101520000FB8019A2B689A420AD103B0F0BD02238A
:101530002370B307EAD5D8E72046FFF789FFDDE738
:10154000FFF796FE0008002000000550D81100208B
:1015500030B50B4D0B4C2B6883B02046019300F047
:1015600037F8019A2B680848084D094921619A42C9
:10157000C4E9025001D103B030BDFFF779FE00BFCE
:1015800000080020D81100203CF1000800000550A0
:1015900016550202000000000000000000000000DC
:1015A00000B5074B83B01A680192019A1B689A42F2
:1015B00004D103B05DF804EBFFF7CABFFFF758FE94
:1015C00000080020000000000000000000000000F3
:1015D00000B5084B83B01A68019201220270019A8B
:1015E0001B6800219A42416002D103B05DF804FB00
:1015F000FFF73EFE00080020000000000000000091
:1016000030B50E4D0E4C2B6883B00193FFF7C8FF29
:10161000206808B109F0CCFB4FF4964009F0C0FBFC
:1016200001992A682060B0FA80F35B099142C3F106
:10163000000001D103B030BDFFF71AFE0008002002
:10164000EC1100200000000000000000000000007D
:1016500070B5274D82B02B68019306460122032105
:101660006E2000F02DFB044630B1019A2B689A429F
:1016700020463AD102B070BD32464E216E2000F0B5
:101680001FFB04460028F0D1442E07D00246B721A4
:101690006E2000F015FBB8B10446E6E70122B72141
:1016A0006E2000F00DFB0028F6D1224603216E20AB
:1016B00000F006FB0028EFD1032211216E2000F07C
:1016C000FFFA78B10446D0E7224603216E2000F0ED
:1016D000F7FA0028E0D10A2211216E2000F0F0FA7A
:1016E0000028D9D1034B1E71BFE7FFF7C1FD00BF32
:1016F00000080020F01100200000000000000000A1
:101700002DE9F04F8FB0DFF80084DDF860C0D8F825
:1017100000400D940CF1FF355C1EB3F5207F9DF861
:1017200064909DF868B00C44154400F21282BCF538
:10173000F07F00F20E82B1F5207F0E4600F2128299
:10174000B2F5F07F174600F21082A14280F00482C9
:10175000B4F5207F00F20082AA4280F00082B5F545
:10176000F07F00F2FC81B9F1400F824600F0B081B9
:10177000B9F1800F23D0B9F1200F00F09C81002334
:10178000CDE90033BBF1400F2FD0BBF1800F00F04B
:10179000CB81BBF1200F00F0B9810023CDE90233EA
:1017A000002203216E2000F08BFAA0B30D9AD8F826
:1017B00000309A4240F0E2810FB0BDE8F08F9A0706
:1017C00040F0D681CC4A8C085900661CA2FB01016E
:1017D000A2FB030204EB930406EBD2030093BBF1DC
:1017E000400F06EBD1030193CFD11CF0010F40F065
:1017F000C281C14B7D084FEA4C026F1CA3FB021251
:10180000A3FB0C1307EB9303029307EB920305EB87
:101810005C050393C4E702465B216E2000F050FA9A
:101820000028C3D15046FFF713FF0028BED102465F
:1018300003216E2000F044FA0028B7D1C6F3072335
:101840001A4608216E20049300F03AFA0028ADD120
:10185000F3B21A4609216E20059300F031FA0028F0
:10186000A4D1C7F307231A460A216E20069300F07D
:1018700027FA00289AD1FBB21A460B216E20079353
:1018800000F01EFA002891D1C4F307231A460C2158
:101890006E20089300F014FA002887D1E3B21A46AC
:1018A0000D216E20099300F00BFA00287FF47EAF23
:1018B000C5F307231A460E216E200A9300F000FAA2
:1018C00000287FF473AFEBB21A460F216E200B9302
:1018D00000F0F6F900287FF469AF049A35216E20F4
:1018E00000F0EEF900287FF461AF059A36216E20F2
:1018F00000F0E6F900287FF459AF089A37216E20EE
:1019000000F0DEF900287FF451AF099A38216E20EB
:1019100000F0D6F900287FF449AF069A39216E20ED
:1019200000F0CEF900287FF441AF079A3A216E20EB
:1019300000F0C6F900287FF439AF0A9A3B216E20E7
:1019400000F0BEF900287FF431AF0B9A3C216E20E5
:1019500000F0B6F900287FF429AF009B3D21C3F3C6
:1019600007226E2000F0ACF900287FF41FAF9DF82D
:1019700000203E216E2000F0A3F900287FF416AF6E
:10198000019B3F21C3F307226E2000F099F9002844
:101990007FF40CAF9DF8042040216E2000F090F9F8
:1019A00000287FF403AF029B4121C3F307226E207E
:1019B00000F086F900287FF4F9AE9DF80820422156
:1019C0006E2000F07DF900287FF4F0AE039B4321E8
:1019D000C3F307226E2000F073F900287FF4E6AE0F
:1019E0009DF80C2044216E2000F06AF900287FF455
:1019F000DDAE012203216E2000F062F900287FF4A1
:101A0000D5AE4A4693216E2000F05AF900287FF4A3
:101A1000CDAE5A4694216E2000F052F900287FF492
:101A2000C5AE012203216E2000F04AF900287FF4A0
:101A3000BDAE0134A31B07EE103ADFED307AB8EEED
:101A4000477ABAF1440F77EEC77A00F09980B0EE8A
:101A5000006AF2EE006AE7EE066A77EEA77AB0EE69
:101A6000667A67EE877ADFED266A87EEA67AFCEE65
:101A7000C77ACDED007A009B9521C3F307226E2033
:101A800000F01EF900287FF491AE9DF80020962109
:101A90006E2000F015F900287FF488AE194B01354F
:101AA000EF1BA41B5F801C8083F804A083F80590C3
:101AB00083F806B07AE610495A00A1FB030306EB4F
:101AC0005303A1FB0212009306EB5203019359E664
:101AD000D9074DD4084A74085900661CA2FB0101BD
:101AE000A2FB030204EB530406EB9203009306EB04
:101AF0009103019346E600BFABAAAAAA00002244C4
:101B00000000A344F011002000080020244A4FEAFE
:101B10004C03A2FB0C1CA2FB032307EB530307EBB4
:101B20005C02029203933BE61CF0030F23D11C4B93
:101B3000BD084FEA4C026F1CA3FB0212A3FB0C135F
:101B400007EBD303029307EBD20305EB9C0503934A
:101B500026E66FF0070029E66FF0030026E66FF037
:101B6000040023E66FF0010020E66FF002001DE69E
:101B70006FF005001AE66FF0060017E6FFF778FB36
:101B8000F2EE006A37EE267ADFED066A67EE277A14
:101B900087EEA67AFCEEC77ACDED007A6BE700BF40
:101BA000ABAAAAAA00002444000000000000000024
:101BB00010B5114C86B02368059300F061F80F4909
:101BC0000F4803F0D5F8012200210D4803F068F911
:101BD00020237822CDE901330092A023B422F02102
:101BE0000220FFF78DFD059A23689A4201D106B0C5
:101BF00010BDFFF73DFB00BF0008002000E7000814
:101C00004823002000000000000000000000000049
:101C100070B5164E16483368154D82B005224FF444
:101C20008071019306F024FF20246B6983F4807394
:101C30006B61012001F004FC631E13F0FF04F4D17A
:101C40004FF4807140F206222983094806F010FF04
:101C5000019A33689A4206D10649074802B0BDE8A6
:101C6000704002F0CDBEFFF703FB00BF000800206C
:101C70000004024040E70008C01F002000000000F0
:101C800000B50C4A0C4B1278196883B0012A0191F7
:101C9000019A1B6804D09A4209D103B05DF804FB95
:101CA0009A4204D103B05DF804EBFFF7B1BFFFF730
:101CB000DFFA00BFC01F0020000800200000000065
:101CC000F0B5214C214E89B03368079307460025B3
:101CD00020468DF818108DF819208DF8145002F058
:101CE000A7FF2378012B0CD0042205AB01950292AB
:101CF00000933946022306AA204602F029FF054632
:101D000048B9114802F0B4FF0020079A33689A429C
:101D100017D109B0F0BD204602F002FF23780C4A2B
:101D2000052B106004D0084802F0A2FF68B2ECE76F
:101D3000204602F0ADFE2378012BF4D1FFF768FFB7
:101D4000F1E7FFF795FA00BFC01F00200008002050
:101D5000F81100200000000000000000000000005A
:101D60002DE9F043254E83B034680194042A9DF890
:101D70002890144605460F46984639D9B9F1000F08
:101D800014BF00224FF08052640002EB0863013C54
:101D90001C4405F00F0527F01F07202383F311884B
:101DA00001F00EFE3D4300F013FE154B1035DD60D3
:101DB0001C6100F02DFE01F01BFE124B1A689A42C6
:101DC00004D0996993688A689A420DD3002383F3FB
:101DD0001188BFF36F8FBFF34F8F019A33689A4218
:101DE0000AD103B0BDE8F083074800F051FDEDE7EC
:101DF000064800F04DFDC1E7FFF73AFA0008002061
:101E000090ED00E040150020D0E70008B0E70008A2
:101E100030B5224D224C2B68224A85B0039363686B
:101E200043F004036360536A43F480335362202316
:101E300083F3118801F0C4FD00F0CAFD17221A4B8C
:101E4000E260236100F0E4FD01F0D2FD174B1A6857
:101E50009A4204D0996993688A689A4218D30020FC
:101E600080F31188BFF36F8FBFF34F8F03231D22C1
:101E700000904FF00051FFF773FF094A536843F099
:101E800001035360039A2B689A4205D105B030BD17
:101E9000074800F0FDFCE2E7FFF7EAF90008002040
:101EA00090ED00E000ED00E009000010401500207A
:101EB000D0E7000800000000000000000000000063
:101EC00070B51A4D1A4C1B4E0FCD0FC49EB02A6828
:101ED000336822801D93EFF30981682203A8FEF77F
:101EE00097FF154B9D6AAA0714D4EB0708D5124B30
:101EF00008995B6B114A00910D48802109F070FA36
:101F00001D9A33689A420FD109481EB0BDE870404F
:101F100000F0BEBC099A5B6B0092A4F11000084A65
:101F2000802109F05DFAE0E7FFF7A2F994E70008E5
:101F3000FC1100200008002000ED00E070E7000820
:101F400050E7000800000000000000000000000052
:101F500000B51F4B0278196883B00191E2B11D4AA8
:101F60004FF4005111834278EAB11A4A4FF480517C
:101F700011838278F2B1174A4FF480411183C278FD
:101F8000FAB9144A4FF400415183019A1B689A42EE
:101F90001CD103B05DF804FB0E4A4FF4005151838D
:101FA0004278002AE1D10B4A4FF480515183827864
:101FB000002AE0D1074A4FF480415183C278002AB9
:101FC000DFD0044A4FF400411183DEE7FFF750F9F8
:101FD0000008002000100240000000000000000087
:101FE00000B51F4B0278196883B00191E2B11D4A18
:101FF0004FF4007111834278EAB11A4A4FF48071AC
:1020000011838278F2B1174A4FF400611183C278CC
:10201000FAB9144A4FF480615183019A1B689A42BD
:102020001CD103B05DF804FB0E4A4FF400715183DC
:102030004278002AE1D10B4A4FF4807151838278B3
:10204000002AE0D1074A4FF400615183C278002A88
:10205000DFD0044A4FF480611183DEE7FFF708F90F
:1020600000080020001002400000000000000000F6
:1020700030B50C4A0C4B116883B04FF400550191F8
:102080004FF480544FF400414FF480405D835C83F3
:102090005883598301991368994201D103B030BD27
:1020A000FFF7E6F8000800200010024000000000E2
:1020B00030B50C4A0C4B116883B04FF40075019198
:1020C0004FF480744FF480614FF400605D835C8353
:1020D0005883598301991368994201D103B030BDE7
:1020E000FFF7C6F8000800200010024000000000C2
:1020F00010B50B4C0B48236882B099220021019344
:1021000002F0CEFE019A23689A4206D105480021CA
:1021100002B0BDE8104002F0ABBFFFF7A9F800BF66
:102120000008002010230020000000000000000034
:1021300010B50B4C0B48236882B099220021019303
:1021400002F0AEFE019A23689A4206D105480021AA
:1021500002B0BDE8104002F08BBFFFF789F800BF66
:10216000000800202C2300200000000000000000D8
:1021700000B5084B83B01A680192019A1B689A4215
:1021800006D10548002103B05DF804EB02F0D8BE8B
:10219000FFF76EF800080020102300200000000068
:1021A00000B5084B83B01A680192019A1B689A42E5
:1021B00006D10548002103B05DF804EB02F0C0BE73
:1021C000FFF756F8000800202C2300200000000034
:1021D00070B51A4C1A4E2378326882B0022B0192E5
:1021E000A26811D165781748013505F0070500EBA5
:1021F0008500904763686570013B6360019A3368AE
:102200009A4219D102B070BD012B08D001993368F0
:10221000994211D10C4802B0BDE870401047657872
:102220000848013D05F0070500EB8500904763680D
:10223000657001336360E1E7FFF71AF8941200203C
:102240000008002070E8000860E8000800000000B6
:1022500070B51A4C1A4E2378326882B0012B019265
:10226000A26811D165781748013505F0070500EB24
:10227000850090476368657001336360019A336835
:102280009A4219D102B070BD022B08D0019933686F
:10229000994211D10C4802B0BDE8704010476578F2
:1022A0000848013D05F0070500EB8500904763688D
:1022B0006570013B6360E1E7FEF7DAFF7C12002006
:1022C0000008002070E8000860E800080000000036
:1022D00030B51F4D85B02B68039340F24C439942B3
:1022E000044626DCA3F69803994211DB4B00002B31
:1022F00029D10370036998474FF47A71039A2B68C8
:102300009A421ED1606905B0BDE8304002F080BD40
:10231000104B02225B42227040F2892293420E4906
:1023200091FBF3F189B207DC0191E36898470199C9
:10233000E4E7012303702D21019123699847019956
:10234000DCE7FEF795FFE4DD01220270E4E700BF61
:102350000008002068F7FFFFA086010000000000D1
:1023600000B5084B83B01A680192019A1B689A4223
:1023700006D10146044803B05DF804EBFFF7A8BF9F
:10238000FEF776FF000800207C120020000000000D
:1023900000B5084B83B01A680192019A1B689A42F3
:1023A00006D10146044803B05DF804EBFFF790BF87
:1023B000FEF75EFF000800209412002000000000DD
:1023C00000B5094B094A1968506883B000EBD0701A
:1023D0000191019A1B689A4203D1401003B05DF845
:1023E00004FBFEF745FF00BF000800207C12002020
:1023F00000B5094B094A1968506883B000EBD070EA
:102400000191019A1B689A4203D1401003B05DF814
:1024100004FBFEF72DFF00BF0008002094120020EF
:1024200000B5084B08491A6883B040000192019A30
:102430001B6848609A4202D103B05DF804FBFEF7C6
:1024400017FF00BF000800207C12002000000000E1
:1024500000B5084B08491A6883B040000192019A00
:102460001B6848609A4202D103B05DF804FBFEF796
:10247000FFFE00BF000800209412002000000000B2
:1024800070B51D4E1D4A1E4B30681E491E4C916092
:1024900082B00021D46001901C4C1D481D4D9D60F0
:1024A000117051705160106154611B481B4A1C4DE2
:1024B000D8601C48197059705960C3E90425FFF7AA
:1024C00047FD1848FFF78CFD1749204602F050FCE5
:1024D000204602F085FD2846144902F049FC019A85
:1024E00033689A4205D1284602B0BDE8704002F038
:1024F00077BDFEF7BDFE00BF00080020941200204B
:102500007C120020511F0008F12000081023002039
:1025100071210008E11F000831210008A1210008F5
:102520002C23002060E8000820E80008E0E700080D
:102530000A490B4B09680B4A82B0202001914021C7
:1025400058834FF4806559834FF400644FF4804002
:1025500004215D835C8358835183FEE700080020DB
:10256000000C0240000402400000000000000000D7
:1025700000B50F4B83B01868019002290CD00329D5
:102580000CD001290B4818BF0020019A1B689A4201
:102590000BD103B05DF804FB0748F6E7032A96BFAA
:1025A0000648002000EBC200EFE7FEF761FE00BF27
:1025B0000008002070E9000810E9000820EA00087F
:1025C00070B5154C82B02368019302291CD10D46C9
:1025D0000646202383F3118801F022FA00F038FA2E
:1025E00030460E4A012103F0CBFE29460C4A304604
:1025F00003F0C6FE0B4803F0C3FC00F049FA01F0FB
:1026000027FA002383F31188019A23689A4201D1A3
:1026100002B070BDFEF72CFE0008002090E8000814
:10262000C0E80008AC12002000000000000000001C
:1026300030B5134D134C2B68134883B0019303F04E
:1026400017FC1249104803F043FC226D936B23F4EE
:10265000002393634FF47A7000F0F2FE20460C4999
:1026600003F03EFE226D936B43F400239363019AC3
:102670002B689A4201D103B030BDFEF7F9FD00BFCF
:102680000008002000200020AC120020F0E8000824
:1026900000E9000800000000000000000000000049
:1026A00000B5084B83B01A680192019A1B689A42E0
:1026B00005D1054803B05DF804EB01F0C9BAFEF797
:1026C000D7FD00BF00080020100800200000000017
:1026D00000B5084B83B01A680192019A1B689A42B0
:1026E00005D1054803B05DF804EB01F0E9BAFEF747
:1026F000BFFD00BF000800201008002000000000FF
:1027000070B50D4C82B0236801930D1E06460DDD99
:10271000284601F08DFE18B90C2333604FF0FF30CE
:10272000019A23689A4205D102B070BD034800F0B7
:10273000AFF8EDE7FEF79CFD0008002040EA000836
:1027400000B5064B83B01A680192019A1B689A4241
:1027500002D103B05DF804FBFEF78AFD00080020FB
:1027600000B5064B83B01A680192019A1B689A4221
:1027700002D103B05DF804FBFEF77AFD00080020EB
:10278000024B82B01B680193FEE700BF00080020E7
:1027900000B5044B04481B6883B0019300F078F83F
:1027A000FEE700BF0008002050EA0008000000001B
:1027B000024B82B01B680193FEE700BF00080020B7
:1027C000F0B5294E294B3268294885B00024039280
:1027D0009C60D968274A4FF6FF0529400A43DA6012
:1027E000C2682549254D42F08072C2600A6842F0F5
:1027F00001020A6010202022D87783F8222000F0FE
:10280000DFFA00F045FA01F02BF801F0E9FD01F0E4
:1028100057FE01F07DF800F0FBF9402105F58860D6
:1028200000F01EFD0127164BC36180F82070A861DF
:1028300000F0A6F884F3118862B6AB69114A9A6178
:102840004FF4C4713A46104B009405F59D6000F0BA
:102850009FFD039A33680D4981619A4201D105B009
:10286000F0BDFEF705FD00BF0008002000ED00E010
:10287000F0ED00E00003FA05001000E04015002034
:1028800000040020F0EB0008B127000870EA0008FF
:1028900000B5054B83B01B680193044672B6FFF781
:1028A00047FE024BDC62FEE70008002040150020D6
:1028B0002DE9F047DFF890A0224DDAF8003082B021
:1028C000019300F055F9AB6993F8232012B1013A56
:1028D00083F823205A6ADFF8748001325A6200F0CC
:1028E00047F9AB6AEA6901334245AB6220D093688D
:1028F000013B9360EC69A668D6B94FF020092368C4
:10290000E768E660C3F804802368EB6100F0C0F874
:1029100001F09EF886F311882069B84789F3118881
:1029200001F07EF800F094F8EC69A368002BE6D083
:10293000019ADAF800309A4202D102B0BDE8F0877D
:10294000FEF796FC40150020000800205C150020D2
:1029500010B5094C094A236882B001935168536845
:102960005B1A9842FBD8019A23689A4201D102B0BF
:1029700010BDFEF77DFC00BF00080020001000E045
:1029800000B50E4A0E4B116B186883B0019009B95F
:10299000526B4AB1019A1B689A420CD1094803B0A4
:1029A0005DF804EBFFF774BF019A1B689A4202D1ED
:1029B00003B05DF804FBFEF75BFC00BF4015002090
:1029C0000008002080EA000800000000000000006D
:1029D00030B50B4C0B4D236B2A6883B001920BB9B9
:1029E000636B13B10848FFF753FF019A2B6801216D
:1029F0009A42616301D103B030BDFEF739FC00BFDC
:102A00004015002000080020B0EA00080000000087
:102A100030B50C4C0C4D236B2A6883B0019253B92E
:102A2000636B002B07DD019A2B6800219A426163DA
:102A300005D103B030BD0548FFF72AFFF3E7FEF7E5
:102A400017FC00BF4015002000080020D0EA000855
:102A500030B50B4C0B4D236B2A6883B0002B0192D1
:102A600001DD636B13B10848FFF712FF019A2B6871
:102A700001219A42616301D103B030BDFEF7F8FB3A
:102A80004015002000080020C0EA000800000000F7
:102A900030B50C4C0C4D236B2A6883B0002B01928F
:102AA0000ADD636B002B07DD019A2B6800219A4237
:102AB000616305D103B030BD0448FFF7E9FEF3E7D9
:102AC000FEF7D6FB4015002000080020E0EA0008D1
:102AD00030B50F4D83B02B680193202383F3118809
:102AE0000C4C236B002B01DB626B1AB10A48FFF719
:102AF000CFFE236B01332363002383F31188019AF4
:102B00002B689A4201D103B030BDFEF7B1FB00BF84
:102B1000000800204015002090EA00080000000096
:102B200030B50F4D83B02B680193202383F31188B8
:102B30000C4C236B002B01DD626B1AB10A48FFF7C6
:102B4000A7FE236B013B2363002383F31188019AC3
:102B50002B689A4201D103B030BDFEF789FB00BF5C
:102B60000008002040150020A0EA00080000000036
:102B700000B50F4A0F4B116B186883B00029019004
:102B800009DB526B002A06DD019A1B689A420CD1C0
:102B900003B05DF804FB019A1B689A4205D1064810
:102BA00003B05DF804EBFFF773BEFEF761FB00BFF7
:102BB0004015002000080020F0EA00080000000096
:102BC00000B50E4A0E4B116B186883B0019049B9DD
:102BD000526B002A06DD019A1B689A420CD103B0A1
:102BE0005DF804FB019A1B689A4205D1054803B0C1
:102BF0005DF804EBFFF74CBEFEF73AFB40150020F2
:102C00000008002000EB00080000000000000000A9
:102C100010B5084A084B116882B04024019101990F
:102C2000126818199142C3E90E4001D102B010BDDB
:102C3000FEF71EFB000800204015002000000000E9
:102C400010B51149114B0A6882B00192DA6B9C6A87
:102C50001460DA6B9C695460DA6B846A9460DA6B96
:102C600090F820001073DA6B03F58860103282420E
:102C700028BF03F14002DA63019A0B689A4201D13E
:102C800002B010BDFEF7F4FA000800204015002045
:102C900010B50B4A0B4B116882B04FF0FF34019115
:102CA00000219962019811685C6203F11C0288425C
:102CB000C3E9072201D102B010BDFEF7D9FA00BF67
:102CC0000008002040150020000000000000000067
:102CD0002DE9F041184E82B00546306801900C464F
:102CE00017469846FFF744FF05B3FFB1F4B1C5E9B5
:102CF00003781248C3699A68944204D91B68A41ADD
:102D00009A68A242FAD32B605A686A6015605D60C7
:102D1000AC609968019D3268091B95424FF0FF3401
:102D20009960446206D102B0BDE8F0810448FFF723
:102D3000AFFDDCE7FEF79CFA0008002040150020FC
:102D400010EB000800000000000000000000000080
:102D500030B5164D83B004462B680193FFF708FF8A
:102D6000ECB1E368BBB12268A068936801990344A1
:102D70009360D4E900231A6020682B680C4A6568C8
:102D8000456099424FF000054FF0FF30E56050621A
:102D900009D103B030BD0748FFF77AFDE3E70548E6
:102DA000FFF776FDDDE7FEF763FA00BF00080020BD
:102DB0004015002020EB000800000000000000008B
:102DC00000B50A4A0A4B11681B6083B000200191CC
:102DD000019912685B609142C3E90433986002D1A3
:102DE00003B05DF804FBFEF743FA00BF00080020C3
:102DF000401500200000000000000000000000005E
:102E000030B5164D83B004462B680193FFF7B0FE32
:102E1000ECB194F82030B3B10F2B14D00022A1688C
:102E20000F4B84F820201B689A688A42FBD22360EB
:102E30005A686260146001992A685C609142204679
:102E400009D103B030BD0748FFF722FDE6E705488A
:102E5000FFF71EFDDDE7FEF70BFA00BF00080020BC
:102E60004015002030EB00080000000000000000CA
:102E700070B5204D82B02B6801930446202383F364
:102E8000118800F0CDFDFFF7E3FD94F82030072B0B
:102E900011D8DFE803F0161010230A04100AA66AFE
:102EA000FFF766FEB3680133B360D4E900231A600C
:102EB000D4E900325A604FF0FF33A3622046FFF797
:102EC0009FFFFFF7E5FD00F0C3FD002383F31188AA
:102ED000019A2B689A420BD102B070BDA36A0022FE
:102EE0001A604FF0FF33A3622046FFF789FFE8E73F
:102EF000FEF7BEF9000800200000000000000000FE
:102F0000F0B5194E194C336883B007460193FFF7AB
:102F100057FEA569236885F82070142285F82320C0
:102F20001A68226001215460284683F82010A361AA
:102F3000FFF786FE2946A06900F022FDEFF3098322
:102F4000EA69643B9A4202D90948FFF7A1FC019A59
:102F500033689A4206D1A069294603B0BDE8F04023
:102F6000FDF7A6B9FEF784F90008002040150020FF
:102F700040EB00080000000000000000000000001E
:102F8000F0B5154C87B0236805930E460746FFF74A
:102F900017FE731C18D0114D114AAB6931466846B3
:102FA000FFF796FE3846FFF7ABFFFFF7E1FD039B07
:102FB00013B16846FFF7CCFE059A2368A9699A42C7
:102FC000886A06D107B0F0BD3846FFF799FF034D78
:102FD000F2E7FEF74DF900BF000800204015002081
:102FE000712E00080000000000000000000000003A
:102FF000F0B51E4D1E4E2B6883B0044601930F465C
:10300000FFF7DEFDB069A7628368A2689A421DD906
:10301000FFF7F6FE0123074684F82030B461FFF77E
:103020000FFE3946204600F0ABFCEFF30983FA6946
:10303000643B9A4214D8019A2B689A4214D13946BB
:10304000204603B0BDE8F040FDF732B9019A2B6885
:103050009A4209D1204603B0BDE8F040FFF7D0BE48
:103060000448FFF715FCE6E7FEF702F90008002028
:103070004015002040EB00080000000000000000A8
:1030800010B50E490E4B8A69086892F823101C6827
:103090008068926882B0019449B9904234BF0020A0
:1030A0000120019A1B689A4206D102B010BD9042DD
:1030B00094BF00200120F4E7FEF7DAF84015002065
:1030C00000080020000000000000000000000000D8
:1030D00070B5184C184E2368A5691A6822605460B0
:1030E000012283F8202082B01422316885F8232041
:1030F0002846A3610191FFF783FE2846FFF7A0FD54
:103100002946A06900F03CFCEFF30983EA69643BBF
:103110009A4202D90948FFF7BBFB019A33689A42E9
:1031200006D1A069294602B0BDE87040FDF7C0B8DD
:10313000FEF79EF8401500200008002040EB000834
:1031400070B51C4D1C4E2A68AC6913682B600121B8
:1031500082B05D60002082F82010AA613268A16808
:1031600084F82000019200E01B689A688A42FBD82C
:1031700023605A686260204614605C60FFF760FD5F
:103180002146A86900F0FCFBEFF30983E269643B88
:103190009A4202D90948FFF77BFB019A33689A42A9
:1031A00006D1A869214602B0BDE87040FDF780B89D
:1031B000FEF75EF8401500200008002040EB0008F4
:1031C00010B50F4C82B023680193FFF7F9FCFFF7AD
:1031D000CFFC0C4B1A689B6992689B689A42019AD3
:1031E000236803D89A4208D102B010BD9A4204D194
:1031F00002B0BDE81040FFF7A3BFFEF739F800BFEB
:103200000008002040150020000000000000000021
:1032100000B50E4A0E4B9269196892F8232083B0CC
:10322000019142B1019A1B689A420DD103B05DF839
:1032300004EBFFF785BF019A1B689A4204D103B0E3
:103240005DF804EBFFF744BFFEF712F840150020CD
:103250000008002000000000000000000000000046
:10326000F0B51A4A1A4D02610446816083B01423F6
:1032700050692E68616484F82330022700230121FD
:10328000278484F82210C4E90F3304F16801A36194
:10329000019604F12C07636204F1500604F1300337
:1032A00060610461C4E90C33E1613046E762546156
:1032B00000F06EFA304600F08BFA019A2B689A42C1
:1032C00002D1204603B0F0BDFDF7D2FF401500202B
:1032D00000080020000000000000000000000000C6
:1032E00010B5094B82B01C680194884203D200F8E3
:1032F000012B8142FBD1019A1B689A4201D102B095
:1033000010BDFDF7B5FF00BF000800200000000061
:103310002DE9F043184E83B0346801940546DDF87A
:1033200028900C4617469846FFF722FC15B1B4F5D5
:10333000BC7F19D21148FFF7ABFAA4F1640129440C
:10334000E960C1F84080EB68019AC3F844903368A3
:10335000E9680B4808669A420CD13946284603B002
:10336000BDE8F043FFF77CBF7F2FE3D8B8F1000F33
:10337000E3D1DFE7FDF77CFF0008002090EB0008B9
:10338000C90200080000000000000000000000006A
:103390002DE9F04FDFF8A48087B0D8F80040DDF8C1
:1033A0004090059407468A46934600F16806044615
:1033B000FF2504F8015BA642FBD107EB0A05A542F5
:1033C00004D9552604F8016BA542FBD103932022B2
:1033D00082F3118800F0F4FAFFF7FAFA039BCDF8B4
:1033E00000905A4651463846FFF792FF00210446A6
:1033F000FFF7FEFDFFF70CFB00F0FAFA0D4B1A6821
:103400009A4204D0996993688A689A420BD3002340
:1034100083F31188059AD8F800309A42204606D1E5
:1034200007B0BDE8F08F0448FFF732FAEFE7FDF789
:103430001FFF00BF4015002050EB000800080020CF
:1034400030B5184C83B0236801930546202383F3DD
:10345000118800F0B5FAFFF7BBFA15B91248FFF76B
:1034600017FA29460820FFF78BFDFFF7D1FA00F085
:10347000BFFA0E4B1A689A4204D0996993688A6819
:103480009A4208D3002383F31188019A23689A4251
:1034900005D103B030BD0648FFF7FAF9F2E7FDF7B2
:1034A000E7FE00BF0008002060EB00084015002088
:1034B00050EB0008000000000000000000000000C9
:1034C00070B5164B164E9C693268E36AA06282B0F2
:1034D00004F12C05AB42019207D01A68E26218464B
:1034E000FFF78EFCE36AAB42F7D194F821309B07DB
:1034F00005D1D4E904231A61D4E904325A610F20BA
:10350000FFF7FEFC019A33689A4205D1054802B0E4
:10351000BDE87040FFF7BCB9FDF7AAFE40150020DA
:1035200000080020A0EB00080000000000000000E0
:1035300030B50C4C83B0236801930546202383F3F8
:10354000118800F03DFAFFF743FA019A23689A4286
:1035500005D1284603B0BDE83040FFF7B1BFFDF705
:1035600087FE00BF000800200000000000000000EF
:10357000F0B50D4D0D4E03682A68B76983B0044657
:10358000019213B10A48FFF783F927600320BC6258
:10359000FFF7B6FC019A2B68B1699A42886A01D19B
:1035A00003B0F0BDFDF764FE0008002040150020C8
:1035B000B0EB000800000000000000000000000068
:1035C000F0B5124D0368124A83B004462868019092
:1035D0000E46976913B10F48FFF75AF966B1276095
:1035E000019A2B68BC629A420ED13146032003B087
:1035F000BDE8F040FFF7C4BC019A2B689A424FF037
:10360000FF3001D103B0F0BDFDF732FE000800200D
:1036100040150020C0EB0008000000000000000082
:10362000F0B5124D04682B6883B00193B4B194F8DF
:103630002030032B06460F460CD100233360019A3D
:103640002B68A7629A420FD1204603B0BDE8F04034
:10365000FFF7D6BB0648FFF71BF9EEE7019A2B6888
:103660009A4201D103B0F0BDFDF702FE0008002030
:10367000E0EB000800000000000000000000000077
:1036800030B5104A83B01368019381B10E4B019D90
:103690009B69186044685C602360126843609542CF
:1036A0000DD1042003B0BDE83040FFF769BC01999B
:1036B000136899424FF0FF3001D103B030BDFDF7E0
:1036C000D7FD00BF000800204015002000000000CA
:1036D00070B5124D04682B6882B0A042019315D0DA
:1036E00023680360586094F82030042B0E4602D003
:1036F0000B48FFF7CDF8019A2B68A6629A420BD1CE
:10370000204602B0BDE87040FFF77ABB019A2B68F3
:103710009A4201D102B070BDFDF7AAFD0008002059
:1037200070EB000800000000000000000000000036
:103730002DE9F041DFF850800468D8F8003082B0FD
:10374000A042019313D00F4F05460E4623682B600D
:103750005D6094F82030042B02D03846FFF798F8CB
:10376000A6622046FFF74CFB2C68A542EED1019AD9
:10377000D8F800309A4202D102B0BDE8F081FDF7DE
:1037800077FD00BF70EB000800080020000000007B
:1037900030B50B4B83B01A6801924FF0FF320260D4
:1037A00001991A680024002300259142C0E90445CC
:1037B000C0E90133C36001D103B030BDFDF758FD4E
:1037C00000080020000000000000000000000000D1
:1037D00000B5084B084A196883B001915168019AF5
:1037E0001B6881609A4202D103B05DF804FBFDF7CB
:1037F0003FFD00BF00080020001000E000000000B6
:10380000F0B51449144B0A68846883B00192134AD6
:103810005B68D2F8A864C2681B1BD0E9044501327A
:103820009B1BC26042688360E61845F10007934223
:10383000C0E9046709D80268934238BF0360019A5F
:103840000B689A4203D103B0F0BD4360F7E7FDF780
:103850000FFD00BF00080020001000E04015002010
:1038600030B5114D114C2B6889B04FF0FF310793E3
:10387000002300226846C4F8A834CDE9013303933D
:103880000023CDE904230091FFF7A2FF6846FFF76C
:10389000B7FF079A2B680299C4F8A8149A4201D17D
:1038A00009B030BDFDF7E4FC000800204015002001
:1038B0002DE97048134E144B326883B001925B6857
:1038C0008B60D0E902411B1BD0E90445426814EB30
:1038D000030B45F1000C01319342C0E90231C0E90C
:1038E00004BC0AD80268934238BF0360019A336867
:1038F0009A4204D103B0BDE870884360F6E7FDF753
:10390000B7FC00BF00080020001000E0000000002D
:1039100030B50D4D0D4C2B6883B004F597600193C5
:103920000023C4F8B034C4F8B434FFF731FF019A6F
:103930002B689A4206D104F59A6003B0BDE8304086
:10394000FFF726BFFDF794FC00080020401500207B
:1039500000B50949094A0B6883B001930198D2F870
:10396000B034096801338842C2F8B03402D103B0E0
:103970005DF804FBFDF77CFC0008002040150020EA
:1039800070B50D4C0D4A236882B00193019DD2F8A9
:10399000B43424680133A542C2F8B43409D10E46C8
:1039A00000F1500106F1500002B0BDE87040FFF791
:1039B0007FBFFDF75DFC00BF000800204015002020
:1039C00000B5084B83B01A680192019A1B689A42AD
:1039D00005D1054803B05DF804EBFFF7F9BEFDF72C
:1039E00047FC00BF00080020F8190020000000007C
:1039F00000B5084B83B01A680192019A1B689A427D
:103A000005D1054803B05DF804EBFFF7F9BEFDF7FB
:103A10002FFC00BF00080020F81900200000000063
:103A200000B5084B83B01A680192019A1B689A424C
:103A300005D1054803B05DF804EBFFF7C9BEFDF7FB
:103A400017FC00BF00080020101A00200000000032
:103A500000B5084B83B01A680192019A1B689A421C
:103A600005D1054803B05DF804EBFFF7C9BEFDF7CB
:103A7000FFFB00BF00080020101A0020000000001B
:103A800030B50B4D83B02B680193044650B12460D0
:103A900001992A68646000239142A360236105D1E3
:103AA00003B030BD0348FEF7F3FEF0E7FDF7E0FB9F
:103AB0000008002020EC00080000000000000000CA
:103AC000F0B55D4E5D4B32689D6983B0044601924E
:103AD000FFF776F8002C00F08480A06823690028A6
:103AE00043D0002B40F39780854276D0AA68836844
:103AF0009A4208D990F820308260062B40D0072BDC
:103B000073D0002B5DD02746234603E09968AA684E
:103B1000914233D31B689C42F8D12F607B686B6065
:103B200006201D607D60AC62FFF7EAF9A368AB4236
:103B300002D04348FEF7ACFE2B6CA34202D04048B3
:103B4000FEF7A6FE2369012B05D1019A33689A423C
:103B50006FD103B0F0BD019A33689A4269D13848F9
:103B600003B0BDE8F040FEF793BE002B58D10133FF
:103B7000A56023612B6CE3602C64E6E71F46CCE76D
:103B8000D0E900231A60D0E900325A60876A3B46C8
:103B900003E099688268914247D31B689F42F8D13D
:103BA00007607B68436018607860836AAA689868D9
:103BB00083689342A7D290F820308260062B9ED172
:103BC000DEE7D0E90023012180F820101A60D0E957
:103BD00000325A60FFF714F995E723690133236136
:103BE000B3E71748FEF754FE77E7D0E900231A60E1
:103BF000D0E900325A60876A3B4603E099688268E0
:103C0000914214D31B689F42F8D107607B684360E0
:103C10001860786077E70A48FEF73AFEA06863E725
:103C20000748FEF735FE2369A1E71F46B8E71F46A0
:103C3000EBE7FDF71DFB00BF00080020401500204A
:103C400030EC000800000000000000000000000050
:103C500030B5154C83B0236801930546202383F3C8
:103C60001188FFF7ADFEFEF7B3FE2846FFF728FFE9
:103C7000FEF7CEFEFFF7BCFE0C4B1A689A4204D04A
:103C8000996993688A689A4208D3002383F311885C
:103C9000019A23689A4205D103B030BD0448FEF76B
:103CA000F7FDF2E7FDF7E4FA0008002040150020D8
:103CB00010EC000800000000000000000000000000
:103CC0002DE9F043DFF800813C4FD8F80030BE69A1
:103CD00083B005460193002864D0202383F3118824
:103CE000FFF76EFEFEF774FE336C002B5ED09B6810
:103CF000B34202D03248FEF7CBFD2B69002B49DDE1
:103D0000013B2B615BBB336CAB4202D02C48FEF70E
:103D1000BFFDEB683364FEF753FF2B689D423ED036
:103D2000D6E910495CB1FEF74BFF23689C4203D0F3
:103D30009B68994538BF9946E468002CF3D1C6F8D2
:103D400008902B6801222A611A682A605560AB60CE
:103D50001A6CEA6018461D640021FFF749F9FEF766
:103D600057FEFFF745FE3B68BB4204D0BA699B682B
:103D700092689A420AD3002383F31188019AD8F8F3
:103D800000309A4217D103B0BDE8F0830D48FEF72A
:103D90007FFDF0E70A48FEF77BFD2B69B0E70023C3
:103DA000AB60DCE70648FEF773FD96E70448FEF7D4
:103DB0006FFD336C9BE7FDF75BFA00BF40150020F9
:103DC00040EC000810EC0008000800200000000093
:103DD00070B5184E82B00446336801930D46FEF765
:103DE000C7FE0CB3E16B94F8203029430A2BE16342
:103DF00016D00B2B05D0019A33689A4218D102B025
:103E000070BDA36A8B43F6D1019A336800219A42B0
:103E1000A1620DD1204602B0BDE87040FEF7F0BFB0
:103E2000A36A1942F0D1E6E70348FEF731FDD9E76E
:103E3000FDF71EFA0008002070EC000800000000EA
:103E4000F0B5134F83B006463B6801930D46FEF76D
:103E50008FFEB6B13468A6420DD0E3682B43E36011
:103E600015B12269134203D0D4E90101FFF7B0FF75
:103E70002468A642F1D1019A3B689A4205D103B069
:103E8000F0BD0448FEF704FDE4E7FDF7F1F900BFDB
:103E90000008002050EC00080000000000000000B6
:103EA00070B50C4CC16082B0266801960A4400606F
:103EB000019E02612268069D4060C0E9051196429C
:103EC0004FF00001C3618160056201D102B070BD95
:103ED000FDF7CEF9000800200000000000000000FF
:103EE00030B50D4D83B02B6801930446FEF740FEBC
:103EF00001992A68E368A36100209142A060636190
:103F000007D120466FF0010103B0BDE83040FFF754
:103F10000FBCFDF7ADF900BF000800200000000055
:103F200070B5164D82B004462B6801930E46FEF71D
:103F30001FFEFEF71DFED4E905239A42A36816D0A2
:103F40000133511CA36061611670D4E904329A42B6
:103F50000AD220460021FFF7BBFB0020019A2B6804
:103F60009A4209D102B070BDE3686361F1E7002BAA
:103F7000E6D06FF00300F1E7FDF77AF900080020C2
:103F8000F0B5234F83B03B68019304460E462023CF
:103F900083F31188FFF714FDFEF71AFDE36943B1BF
:103FA0002046984705E031462046FFF769FB051E8D
:103FB00010DBFEF7DDFDA368002BF4D0A1692069BA
:103FC0004A1C013B8242A360A26128BFE3680D78CE
:103FD00028BFA361FEF71CFDFFF70AFD0D4B1A6811
:103FE0009A4204D0996993688A689A4209D3002357
:103FF00083F31188019A3B689A42284605D103B0A1
:10400000F0BD0548FEF744FCF1E7FDF731F900BFCC
:10401000000800204015002080EC0008000000008F
:104020002DE9F04FDFF8F490044685B0D9F8000090
:1040300003908A461D46D4F81C809346002A60D01F
:10404000202383F311880193FFF7BAFCFEF7C0FC2D
:104050002F4E0027B8F1000F07D02046C04704E0DC
:1040600029462046FFF70CFB60BBFEF781FDA368E5
:10407000002BF5D0A269013B511CA161A36013780C
:104080000AF8013B2369A2699A4224BFE368A3614D
:10409000FEF7BEFCFFF7ACFC3368B34204D0B26954
:1040A0009B6892689A4228D3002383F311880137D2
:1040B000BB4519D0019B83F31188FFF781FCFEF704
:1040C00087FCC7E7FEF7A4FCFFF792FC3368B34216
:1040D00007D0B2699B6892689A4202D20D48FEF7F7
:1040E000D7FB002383F31188039AD9F800309A4252
:1040F00038460AD105B0BDE8F08F0648FEF7C8FB88
:10410000D2E70548FEF7C4FB9AE7FDF7B1F800BF18
:104110004015002080EC000890EC0008000800200A
:1041200070B50B4D82602E68C16082B0C0E900009E
:1041300001960A44019E02612A68069C9642C0E9E3
:104140000511C0E9073401D102B070BDFDF790F848
:104150000008002000000000000000000000000037
:1041600030B50D4D83B004462B680193FEF700FD7A
:10417000D4E9032301982968A2619B1A88426261ED
:10418000A36007D120466FF0010103B0BDE83040C5
:10419000FFF7CEBAFDF76CF8000800200000000021
:1041A0002DE9F0412E4F82B03B68019304468846CA
:1041B0001646202383F31188FFF702FCFEF708FC64
:1041C00005E031462046FFF75BFA051E2DDBFEF7C2
:1041D000CFFCA368002BF4D06269013B511C6161E4
:1041E000A36082F80080D4E904329A4224BFE368D5
:1041F0006361E3690BB120469847FEF709FCFFF7BE
:10420000F7FB184B1A689A4204D0996993688A6838
:104210009A421ED3002585F31188019A3B689A4281
:1042200028461AD102B0BDE8F081FEF7F1FBFFF796
:10423000DFFB0C4B1A689A4207D0996993688A6829
:104240009A4202D20848FEF723FB002383F3118829
:10425000E3E70548FEF71CFBDCE7FDF709F800BFC4
:10426000000800204015002080EC0008000000003D
:1042700070B5154E82B0044633680193FEF778FCA2
:10428000FEF776FCD4E905329342A36815D0206985
:10429000511C0133A360A161814215780AD22046E6
:1042A0000021FFF715FA2846019A33689A4209D18E
:1042B00002B070BDE368A361F1E7002BE7D06FF0B7
:1042C0000200F1E7FCF7D4FF000800200000000026
:1042D0002DE9F04F04463B48D4F81C90006885B0A7
:1042E0000D46039001931646002A61D04FF0200A34
:1042F0008AF31188FFF764FBFEF76AFB4FF00008B2
:10430000314FC346FEF734FCA368002B32D06269FC
:10431000013B511C6161A3602B781370D4E9043216
:104320009A4224BFE36863610135B9F1000F01D0FF
:104330002046C847FEF76CFBFFF75AFB3B68BB42C1
:1043400007D0BA699B6892689A4202D21F48FEF76A
:104350009FFA8BF31188013E08F101081FD08AF300
:104360001188FFF72DFBFEF733FBFEF701FCA36876
:10437000002BCCD101992046FFF782F90028C1D04B
:10438000FEF746FBFFF734FB3B68BB4204D0BA693B
:104390009B6892689A420FD3002383F31188094BDC
:1043A000039A1B689A4240460AD105B0BDE8F08FD7
:1043B0000748FEF76DFA99E70448FEF769FAEBE75C
:1043C000FCF756FF000800204015002080EC000894
:1043D000A0EC000800000000000000000000000049
:1043E00030B50B490B4A0B680B4D0C4C83B022F0D7
:1043F0000702019301980A4B09682A6023F007031A
:104400008842236001D103B030BDFCF731FF00BF0B
:104410000008002017240020B41B0020B01B00203F
:10442000000002200000000000000000000000006A
:1044300070B51C4E82B0336801930446202383F389
:104440001188FFF7BDFAFEF7C3FAFEF791FB164A93
:10445000164B15681B68E01D20F007005B1B984297
:104460009ABF401910600025FEF7D2FAFFF7C0FA94
:104470000F4B1A689A4204D0996993688A689A42E5
:1044800009D3002383F31188019A33689A4228469E
:1044900005D102B070BD0748FEF7FAF9F1E7FCF765
:1044A000E7FE00BF00080020B41B0020B01B002066
:1044B00040150020C0EC00080000000000000000D3
:1044C00000B50B4B0B481A6883B0019201991A682A
:1044D000094B036091424FF00003C0E9023305D15C
:1044E000103003B05DF804EBFFF7CABAFCF7C0FE6A
:1044F00000080020B81B0020314400080000000024
:1045000080B50D4A0D4982B000AF13687B604B68DF
:1045100023F001034B60EFF30983683383F30988C9
:10452000002383F3118879681368994202D1083710
:10453000BD4680BDFCF79CFE0008002030EF00E087
:10454000B0B5194C82B000AF23687B60202383F3A1
:104550001188164B5B6813F4006308D183F311884C
:104560007A6823689A421DD10837BD46B0BDF1EE86
:10457000103AEFF309854FF080720D4B45F84C2C43
:10458000DB6845F8083CA5F1680383F30988FEF76A
:1045900077FD18B1074B45F8503CE1E7064B45F86D
:1045A000503CDDE7FCF764FE0008002000ED00E071
:1045B00030EF00E0E1020008F40200080000000013
:1045C00010B5184C82B02368019302F049FE1648DA
:1045D00004F066F900F0D4F800F00AF900F050F9A0
:1045E00000F07EF900F0ACF900F0DAF900F060FBC1
:1045F00000F08EFB01F0DCF901F0E2F801F0F0FDD3
:1046000001F036FE01F024FC06F0BAFB019A2368A3
:104610009A4204D102B0BDE8104001F011BEFCF78F
:1046200027FE00BF0008002010F300080000000073
:10463000F0B51A4D83B02B68019391420E46144693
:10464000074619D38B1A1F2B16D806F01F03581CC8
:104650006209012376098340B24203F1FF3304F07B
:104660001F0457F822000BD31840E040019A2B6832
:104670009A4210D103B0F0BD0948FEF709F9E4E70A
:1046800057F82610C4F120020B4020FA04F403FA74
:1046900002F02043EAE7FCF7EBFD00BF0008002032
:1046A000D0EC000800000000000000000000000046
:1046B000F0B51D4E83B033680193054670B37E227A
:1046C0007F212846FFF7B4FF80B1012806D00020E3
:1046D000019A33689A4225D103B0F0BD28463022B2
:1046E0004521FFF7A5FF01308002F1E73E22492175
:1046F0002846FFF79DFF2F22044631212846FFF769
:1047000097FF5022074653212846FFF791FF0134B7
:1047100002370938BC4004FA00F0D9E70348FEF735
:10472000B7F8CCE7FCF7A4FD00080020F0EC000887
:10473000F0B5104D83B02B680193044698B194F8FE
:10474000D63094F8D770019994F8D4602A6894F818
:10475000D5001B0403EB07633344914203EB0020B5
:1047600005D103B0F0BD0448FEF792F8E7E7FCF787
:104770007FFD00BF0008002010ED000800000000D1
:1047800000B5074B83B01A680192019A1B689A42E0
:1047900004D103B05DF804EB02F022BEFCF768FD23
:1047A00000080020000000000000000000000000E1
:1047B00000B50C4B83B01A68019201220270019976
:1047C0001A6800239142C0E90133C0E90333436111
:1047D00005D1183003B05DF804EBFFF751B9FCF7D1
:1047E00047FD00BF0008002000000000000000009E
:1047F00000B5074B83B01A680192019A1B689A4270
:1048000004D103B05DF804EB03F092BBFCF730FD7C
:104810000008002000000000000000000000000070
:1048200030B5134B83B01A68019201220270019CCB
:104830001968002200F1180300F11C054260836131
:1048400000F1200200F12403C561026200F1280595
:1048500000F1080243628C4200F110038562C0E956
:104860000222C0E9043301D103B030BDFCF700FDE2
:104870000008002000000000000000000000000010
:1048800000B5074B83B01A680192019A1B689A42DF
:1048900004D103B05DF804EB03F0E2BFFCF7E8FCE1
:1048A00000080020000000000000000000000000E0
:1048B00000B50A4B83B01A68019201220270019977
:1048C0001A6800239142C0E9043305D1183003B0BF
:1048D0005DF804EBFFF7D4B8FCF7CAFC0008002031
:1048E00000B5074B83B01A680192019A1B689A427F
:1048F00004D103B05DF804EB03F03ABBFCF7B8FC5D
:10490000000800200000000000000000000000007F
:1049100000B5084B83B01A68019201220270019A17
:104920001B6800219A42416002D103B05DF804FB8C
:10493000FCF79EFC000800200000000000000000C2
:1049400000B5074B83B01A680192019A1B689A421E
:1049500004D103B05DF804EB05F09ABDFCF788FCC8
:10496000000800200000000000000000000000001F
:1049700000B5084B83B01A68019201220270019AB7
:104980001B6800219A42416002D103B05DF804FB2C
:10499000FCF76EFC00080020000000000000000092
:1049A00000B5074B83B01A680192019A1B689A42BE
:1049B00004D103B05DF804EB04F06ABAFCF758FCCC
:1049C00000080020000000000000000000000000BF
:1049D00000B50A4B83B01A68019201220270019A55
:1049E0001B6800219A42416005D10C3003B05DF88C
:1049F00004EBFFF745B8FCF73BFC00BF00080020C4
:104A000070B51F4D82B02B6801930E46044680B3EB
:104A100079B323785A1E012A04D9052B02D01948EC
:104A2000FDF736FF202383F31188FEF7C9FFFDF75A
:104A3000CFFF2046666004F053FA02232370FDF78F
:104A4000E7FFFEF7D5FF104B1A689A4204D0996928
:104A500093688A689A4208D3002383F31188019AE5
:104A60002B689A4209D102B070BD0848FDF710FFCB
:104A7000F2E70448FDF70CFFCBE7FCF7F9FB00BFBA
:104A80000008002040ED00084015002030ED00082F
:104A900030B51D4D83B02B680193044670B3237865
:104AA0005A1E012A04D9052B02D01848FDF7F0FE42
:104AB000202383F31188FEF783FFFDF789FF20464B
:104AC00004F04EFB01232370FDF7A2FFFEF790FFD9
:104AD0000F4B1A689A4204D0996993688A689A427F
:104AE00008D3002383F31188019A2B689A4209D1D5
:104AF00003B030BD0748FDF7CBFEF2E70348FDF7F2
:104B0000C7FECCE7FCF7B4FB0008002050ED00081E
:104B10004015002030ED00080000000000000000FB
:104B200030B5094D83B02B680193044630B1019A2A
:104B30002B68A0689A4205D103B030BD0348FDF749
:104B4000A7FEF4E7FCF794FB0008002060ED0008E6
:104B50002DE9F04F304E87B034680594DDF840B051
:104B60000D4690461F46DDE9119A044608B100291A
:104B70003DD12A48FDF78CFE2378022B02D027482E
:104B8000FDF786FE202383F31188FEF719FFFDF75A
:104B90001FFF4FF0000C0320C4F808C0424629460E
:104BA00020703B462046CDE9019ACDF800B004F0D4
:104BB0002FFB431C0CBF0523022323700546FDF782
:104BC00027FFFEF715FF164B1A689A4204D0996921
:104BD00093688A689A4218D3002383F31188059A50
:104BE00033689A42284614D107B0BDE8F08F002BF5
:104BF000BFD0002ABDD0B9F1000F02D0BBF1000F29
:104C0000B7D0BAF1000FB7D1B3E70648FDF740FEC1
:104C1000E2E7FCF72DFB00BF0008002070ED000864
:104C20004015002030ED00080000000000000000EA
:104C300030B50B4C83B023680193054650B1019AFF
:104C400023689A420AD105F10C0003B0BDE8304058
:104C5000FEF7FEBF0348FDF71BFEF0E7FCF708FB7D
:104C60000008002090ED0008000000000000000097
:104C700030B50B4C83B023680193054650B1019ABF
:104C800023689A420AD105F10C0003B0BDE8304018
:104C9000FFF716B80348FDF7FBFDF0E7FCF7E8FA6D
:104CA00000080020A0ED0008000000000000000047
:104CB00000B5074B83B01A680192019A1B689A42AB
:104CC00004D103B05DF804EB05F022BBFCF7D0FA89
:104CD00000080020000000000000000000000000AC
:104CE00000B5084B83B01A68019201220270019A44
:104CF0001B6800219A42416002D103B05DF804FBB9
:104D0000FCF7B6FA000800200000000000000000D8
:104D100000B5074B83B01A680192019A1B689A424A
:104D200004D103B05DF804EB05F09ABCFCF7A0FADF
:104D3000000800200000000000000000000000004B
:104D400000B5094B83B01A680192012202700199E3
:104D50001A68002391424360C360037402D103B018
:104D60005DF804FBFCF784FA000800200000000056
:104D700070B5214E82B0336801930D460446002879
:104D800033D0002931D0202383F31188FEF718FE99
:104D9000FDF71EFE2378013B012B02D91748FDF7D2
:104DA00077FD65606B68A360204605F099FC0022E2
:104DB0000223E2602370FDF72BFEFEF719FE104B75
:104DC0001A689A4204D0996993688A689A4208D30B
:104DD000002383F31188019A33689A4209D102B003
:104DE00070BD0848FDF754FDF2E70448FDF750FD9B
:104DF000C9E7FCF73DFA00BF00080020C0ED00083D
:104E000040150020B0ED0008000000000000000088
:104E100070B51C4E82B0336801930C46054650B302
:104E2000202383F31188FEF7CBFDFDF7D1FD2B780E
:104E3000022B02D01448FDF72BFDAB69AC60013C9E
:104E4000DC62FDF7E5FDFEF7D3FD104B1A689A42D0
:104E500004D0996993688A689A4208D3002383F33F
:104E60001188019A33689A4209D102B070BD08488E
:104E7000FDF70EFDF2E70448FDF70AFDD0E7FCF769
:104E8000F7F900BF00080020D0ED00084015002011
:104E9000B0ED00080000000000000000000000006D
:104EA000F0B5214E83B0336801930D461746044692
:104EB00078B3037C8B422CD9202383F31188FEF72F
:104EC0007FFDFDF785FD2378022B02D01748FDF703
:104ED000DFFCE3680122AA401343E3603A46294617
:104EE000204605F0E5FCFDF793FDFEF781FD104B34
:104EF0001A689A4204D0996993688A689A420CD3D6
:104F0000002383F31188019A33689A4209D103B0D0
:104F1000F0BD0648FDF7BCFCCEE70648FDF7B8FC3F
:104F2000EEE7FCF7A5F900BF00080020E0ED00085F
:104F300040150020B0ED0008000000000000000057
:104F400070B5204E82B0336801930D46044678B3A5
:104F5000037C8B422CD9202383F31188FEF730FD8C
:104F6000FDF736FD2378022B02D01748FDF790FCA1
:104F7000E3680122AA4023EA0203E36029462046AF
:104F800005F0AEFCFDF744FDFEF732FD0F4B1A684D
:104F90009A4204D0996993688A689A420CD3002394
:104FA00083F31188019A33689A4209D102B070BD27
:104FB0000548FDF76DFCCEE70548FDF769FCEEE717
:104FC000FCF756F90008002000EE0008401500200C
:104FD000B0ED00080000000000000000000000002C
:104FE00030B51E4D83B02B680193044680B3202357
:104FF00083F31188FEF7E4FCFDF7EAFC2378022B2B
:1050000002D01748FDF744FC63689B68E3B1204673
:1050100005F086FCFDF7FCFCFEF7EAFC114B1A6874
:105020009A4204D0996993688A689A4208D3002307
:1050300083F31188019A2B689A420DD103B030BDD9
:105040000948FDF725FCF2E70548FDF721FCDEE7FE
:105050000348FDF71DFCCAE7FCF70AF90008002029
:1050600020EE000840150020B0ED00080000000010
:1050700070B5294E82B0336801930D46044600286E
:1050800032D0037C8B422FD9202383F31188FEF783
:1050900097FCFDF79DFC2378022B02D01F48FDF7FB
:1050A000F7FBE368EB40DB0726D5636803EBC5033A
:1050B0001B6953B32946204605F052FCFDF7A8FCB6
:1050C000FEF796FC164B1A689A4204D099699368C9
:1050D0008A689A420CD3002383F31188019A3368BB
:1050E0009A4216D102B070BD0C48FDF7D1FBCBE758
:1050F0000C48FDF7CDFBEEE70848FDF7C9FB6368F8
:1051000003EBC5031B69002BD4D10448FDF7C0FB9A
:10511000D0E7FCF7ADF800BF0008002040EE000823
:1051200040150020B0ED0008000000000000000065
:1051300070B5104D82B02B6801930E46044650B1F5
:1051400049B12379052B0CD00120019A2B689A4292
:105150000ED102B070BD0848FDF79AFB2379052BEC
:10516000F2D1A36A73604FF4007333600020ECE760
:10517000FCF77EF800080020D0EE000800000000D8
:105180002DE9F047DFF89C8386B002AFD8F80030F5
:10519000FB600446002800F019812379022B01D01E
:1051A000052B2BD103232371204602F079FF002227
:1051B0001146204602F0ECFF07F108034FF4D572C8
:1051C0000821204603F02CF8E0B9BB680122C3F3A4
:1051D00003239342226300F0FD80204602F098FFF3
:1051E000022323710125FA68D8F800309A42284634
:1051F00040F046811037BD46BDE8F087C048FDF756
:1052000047FBCFE707F1080300223721204603F0D0
:1052100007F8002840F0BE80BB68BA4A1A40002A4E
:1052200040F0B88022631146204602F0B1FF266BA1
:1052300006F00F03022B00F0AF80B34EB34ADFF845
:10524000C492012B18BF1646642504E0013DC4D06A
:105250000A20FEF7F5F807F108030022372120465F
:1052600002F0DEFF0028B8D1BB6813EA090FB4D101
:1052700007F1080332462921204602F0A9FF002841
:10528000ABD1BB68002BE1DA5B0003D5236B43F0A5
:105290001003236304F1080300220221204603F0D7
:1052A000B7F8002899D1024604F1380303212046BB
:1052B00002F0B6FF002890D104F118052B46A26B2E
:1052C0000921204603F0A4F8002886D13B1DA26BDB
:1052D0000721204602F0A4FF824600287FF47DAF1C
:1052E000236B03F00F03022B00F097806E467E22A3
:1052F00090B07F212846FFF79BF90DF1080900289F
:1053000079D10146B546204602F0EAFE236B03F050
:105310000F03022B00F096802846FFF7C9F9A06220
:105320003B1D4FF400721021204602F079FF054624
:1053300000287FF452AF7B68724E33427FF44DAF4A
:10534000236B03F00F03012B40F2B280022B7FF49A
:1053500044AFE36A1A79012A00F0A88017D3022A21
:1053600040F0E2806A4E1979204602F0E9FE07F12A
:10537000080332460621204602F052FF00287FF43F
:105380002CAFBA685F4B1340002B7FF426AF052388
:10539000237128E7022323635E4E642505E0013D67
:1053A0003FF41BAF0A20FEF74BF807F10803324623
:1053B0000121204602F00CFF00287FF40EAFBB68ED
:1053C000002BECDA5B007FF565AF5FE74C48FDF73B
:1053D0005FFAE2E6024607F108033721204602F0B1
:1053E0001FFF00287FF4F9AEBA68464B1340002B2C
:1053F0007FF4F3AE1BE7CDF800A006234022494618
:10540000204603F035F800284ED199F80D3013F0FE
:10541000020337D11946B54675E7E36A1B687BB1CD
:1054200007F108033C4A0621204602F0F9FE38B98C
:10543000BB6834491940B1FA81F1490963E7B546BF
:10544000002160E77E227F212846FFF7F1F801283E
:105450007FF662AFE36A1D68002D3FF4BEAE002305
:1054600000934FF4007208232946204603F000F809
:1054700000287FF4B2AE2846FFF75AF9A0624FE742
:10548000FBF7F6FE254B00934022062349462046B3
:1054900002F0EEFF40B999F8103003F00F030F2B24
:1054A000CDD0B54601212EE7B54696E61C4E5AE70B
:1054B000E36A197900293FF46AAF01297FF48DAEC0
:1054C000204602F03DFE07F10803A26B372120467B
:1054D00002F0A6FE00287FF480AEBB6833427FF462
:1054E0007CAE07F1080302220621204602F098FE56
:1054F00000287FF472AEBB6833423FF448AF6CE6DD
:1055000080EE000808E0FFFD000010C000001080E1
:105510000002B7030080FFC00001B903F1FFFF8064
:105520000001B703000800200248034EFDF7B0F960
:10553000E36A18E760EE00080000B703000000000F
:105540002DE9F041194D82B02C6801940F46904628
:105550001E460446C0B1BAB1B3B12379052B02D0BF
:105560001348FDF795F9781EA36A304498420FD985
:10557000636B43F0800363630120019A2B689A42B6
:1055800011D102B0BDE8F0810948FDF781F9E4E7E7
:1055900006203346207142463946204603F0C8F8BB
:1055A00005232371E9E7FBF763FE00BF0008002035
:1055B000A0EE000800000000000000000000000055
:1055C0002DE9F041194D82B02C6801940F469046A8
:1055D0001E460446C0B1BAB1B3B12379052B02D03F
:1055E0001348FDF755F9781EA36A304498420FD945
:1055F000636B43F0800363630120019A2B689A4236
:1056000011D102B0BDE8F0810948FDF741F9E4E7A6
:1056100007203346207142463946204603F0C8F839
:1056200005232371E9E7FBF723FE00BF00080020F4
:10563000B0EE0008000000000000000000000000C4
:1056400070B50E4D82B02B680193044680B1267967
:10565000052E06D00120019A2B689A420CD102B087
:1056600070BD08232371204603F0E2F82671F2E7AB
:105670000348FDF70DF9EAE7FBF7FAFD0008002003
:10568000C0EE000800000000000000000000000064
:1056900070B5124D124E2B6882B0044601936B46D2
:1056A000A26B0D21204602F0BBFD78B9009B33426E
:1056B0000BD1C3F34323042B08D04FF0010005D3D3
:1056C000072B03D8FDF7BCFEE9E70120019A2B6800
:1056D0009A4201D102B070BDFBF7CAFD000800205C
:1056E00008E0FFFD000000000000000000000000D6
:1056F00070B52D4E82B033680193044600284CD01B
:10570000202383F31188FEF75BF9FDF761F9237914
:10571000022B29D0052B21D104232371FDF778F921
:10572000FEF766F9214B1A689A4204D0996993688A
:105730008A689A4229D3002383F311882046FFF711
:10574000A7FF0546204602F0E3FC02232371019ADD
:1057500033689A42284624D102B070BD1448FDF740
:1057600097F82379022BD7D1FDF752F9FEF740F9CC
:105770000E4B1A689A4204D0996993688A689A42D3
:1057800007D3002585F31188E1E70A48FDF780F883
:10579000D1E70848FDF77CF8F3E70548FDF778F80E
:1057A000AEE7FBF765FD00BF0008002040150020B4
:1057B00090EE0008E0EE000800000000000000008D
:1057C00000B5074B83B01A680192019A1B689A4290
:1057D00004D103B05DF804EB02F042BCFBF748FDD6
:1057E0000008002000000000000000000000000091
:1057F00010B50A4B0A4A1968026082B0012401916F
:1058000001991A680471002391424363C0E90A3385
:1058100001D102B010BDFBF72BFD00BF0008002036
:10582000F0EE000800000000000000000000000092
:1058300030B5084C83B025680195019D2468A542C8
:1058400005D10C3003B0BDE83040FEF7E9BBFBF7F3
:105850000FFD00BF00080020000000000000000055
:1058600010B5094B82B01C680194019C1B689C42D6
:1058700007D10C304FF0FF3302B0BDE81040FEF707
:10588000CFBBFBF7F5FC00BF0008002000000000C4
:1058900030B5084C83B025680195019D2468A54268
:1058A00005D1303003B0BDE83040FEF711BDFBF745
:1058B000DFFC00BF00080020000000000000000026
:1058C00010B5094B82B01C680194019C1B689C4276
:1058D00007D130304FF0FF3302B0BDE81040FEF783
:1058E000F7BCFBF7C5FC00BF00080020000000006B
:1058F00000B5084B83B01A680192019A1B689A425E
:1059000005D10C3003B05DF804EBFEF739BBFBF7B3
:10591000AFFC00BF000800200000000000000000F5
:1059200000B5094B83B01A680192019A1B689A422C
:1059300007D10C304FF0FF3103B05DF804EBFEF7F8
:105940001FBBFBF795FC00BF000800200000000013
:1059500010B5084B82B01C680194019C1B689C42E6
:1059600005D1303002B0BDE81040FEF719BCFBF79E
:105970007FFC00BF000800200000000000000000C5
:1059800000B5094B83B01A680192019A1B689A42CC
:1059900007D130304FF0FF3203B05DF804EBFEF773
:1059A000FFBBFBF765FC00BF000800200000000003
:1059B00000B5074B83B01A680192019A1B689A429E
:1059C00004D103B05DF804EB05F01AB9FBF750FC05
:1059D000000800200000000000000000000000009F
:1059E000F0B5144D144B2F68044685B040F8043BC5
:1059F0004FF0010C00940B461646606084F808C016
:105A000004F1540104F10C0010220397FEF748FA48
:105A100033461022009404F1640104F13000FEF7D3
:105A20007FFB039A2B689A4201D105B0F0BDFBF7CA
:105A30001FFC00BF0008002040EF0008000000002D
:105A400070B51D4D82B02B6801930E46044668B3B5
:105A5000202383F31188FDF7B3FFFCF7B9FF237A06
:105A6000013B012B02D91548FCF712FF31462046B5
:105A700005F0E6F802232372FCF7CAFFFDF7B8FF32
:105A80000F4B1A689A4204D0996993688A689A42BF
:105A900008D3002383F31188019A2B689A4209D115
:105AA00002B070BD0748FCF7F3FEF2E70348FCF7CD
:105AB000EFFECDE7FBF7DCFB0008002020EF00083D
:105AC0004015002010EF000800000000000000005A
:105AD00070B5174D82B004462B6801930E46FDF752
